{
  "contractName": "Bank",
  "abi": [
    {
      "inputs": [
        {
          "internalType": "address",
          "name": "partner",
          "type": "address"
        }
      ],
      "stateMutability": "nonpayable",
      "type": "constructor"
    },
    {
      "inputs": [],
      "name": "_msgSender",
      "outputs": [
        {
          "internalType": "address",
          "name": "",
          "type": "address"
        }
      ],
      "stateMutability": "view",
      "type": "function",
      "constant": true
    },
    {
      "inputs": [],
      "name": "_partner",
      "outputs": [
        {
          "internalType": "address",
          "name": "",
          "type": "address"
        }
      ],
      "stateMutability": "view",
      "type": "function",
      "constant": true
    },
    {
      "inputs": [],
      "name": "exchangeRateETH",
      "outputs": [
        {
          "internalType": "uint256",
          "name": "",
          "type": "uint256"
        }
      ],
      "stateMutability": "view",
      "type": "function",
      "constant": true
    },
    {
      "inputs": [],
      "name": "exchangeRateTKN",
      "outputs": [
        {
          "internalType": "uint256",
          "name": "",
          "type": "uint256"
        }
      ],
      "stateMutability": "view",
      "type": "function",
      "constant": true
    },
    {
      "inputs": [],
      "name": "selfDestruct",
      "outputs": [],
      "stateMutability": "nonpayable",
      "type": "function"
    },
    {
      "inputs": [],
      "name": "name",
      "outputs": [
        {
          "internalType": "string",
          "name": "",
          "type": "string"
        }
      ],
      "stateMutability": "pure",
      "type": "function",
      "constant": true
    },
    {
      "inputs": [],
      "name": "symbol",
      "outputs": [
        {
          "internalType": "string",
          "name": "",
          "type": "string"
        }
      ],
      "stateMutability": "pure",
      "type": "function",
      "constant": true
    },
    {
      "inputs": [
        {
          "internalType": "uint256",
          "name": "rateTKN",
          "type": "uint256"
        },
        {
          "internalType": "uint256",
          "name": "rateETH",
          "type": "uint256"
        }
      ],
      "name": "setExchangeRate",
      "outputs": [],
      "stateMutability": "nonpayable",
      "type": "function"
    },
    {
      "inputs": [],
      "name": "decimals",
      "outputs": [
        {
          "internalType": "uint8",
          "name": "",
          "type": "uint8"
        }
      ],
      "stateMutability": "pure",
      "type": "function",
      "constant": true
    },
    {
      "inputs": [],
      "name": "totalSupply",
      "outputs": [
        {
          "internalType": "uint256",
          "name": "",
          "type": "uint256"
        }
      ],
      "stateMutability": "view",
      "type": "function",
      "constant": true
    },
    {
      "inputs": [
        {
          "internalType": "address",
          "name": "account",
          "type": "address"
        }
      ],
      "name": "balanceOf",
      "outputs": [
        {
          "internalType": "uint256",
          "name": "",
          "type": "uint256"
        }
      ],
      "stateMutability": "view",
      "type": "function",
      "constant": true
    },
    {
      "inputs": [
        {
          "internalType": "address",
          "name": "recipient",
          "type": "address"
        },
        {
          "internalType": "uint256",
          "name": "amount",
          "type": "uint256"
        }
      ],
      "name": "transfer",
      "outputs": [
        {
          "internalType": "bool",
          "name": "",
          "type": "bool"
        }
      ],
      "stateMutability": "nonpayable",
      "type": "function"
    },
    {
      "inputs": [
        {
          "internalType": "address",
          "name": "sender",
          "type": "address"
        },
        {
          "internalType": "address",
          "name": "recipient",
          "type": "address"
        },
        {
          "internalType": "uint256",
          "name": "amount",
          "type": "uint256"
        }
      ],
      "name": "transferFrom",
      "outputs": [
        {
          "internalType": "bool",
          "name": "",
          "type": "bool"
        }
      ],
      "stateMutability": "nonpayable",
      "type": "function"
    },
    {
      "inputs": [
        {
          "internalType": "address",
          "name": "sender",
          "type": "address"
        },
        {
          "internalType": "address",
          "name": "recipient",
          "type": "address"
        },
        {
          "internalType": "uint256",
          "name": "amount",
          "type": "uint256"
        }
      ],
      "name": "_transfer",
      "outputs": [],
      "stateMutability": "nonpayable",
      "type": "function"
    },
    {
      "inputs": [
        {
          "internalType": "address",
          "name": "account",
          "type": "address"
        },
        {
          "internalType": "uint256",
          "name": "amount",
          "type": "uint256"
        }
      ],
      "name": "mint",
      "outputs": [],
      "stateMutability": "nonpayable",
      "type": "function"
    },
    {
      "inputs": [
        {
          "internalType": "address",
          "name": "account",
          "type": "address"
        },
        {
          "internalType": "uint256",
          "name": "amount",
          "type": "uint256"
        }
      ],
      "name": "_mint",
      "outputs": [],
      "stateMutability": "nonpayable",
      "type": "function"
    },
    {
      "inputs": [
        {
          "internalType": "address",
          "name": "account",
          "type": "address"
        }
      ],
      "name": "_buy",
      "outputs": [],
      "stateMutability": "payable",
      "type": "function",
      "payable": true
    },
    {
      "inputs": [
        {
          "internalType": "address",
          "name": "account",
          "type": "address"
        },
        {
          "internalType": "uint256",
          "name": "amount",
          "type": "uint256"
        }
      ],
      "name": "_withdraw",
      "outputs": [],
      "stateMutability": "nonpayable",
      "type": "function"
    }
  ],
  "bytecode": "0x60806040523480156200001157600080fd5b50604051620012383803806200123883398181016040528101906200003791906200013b565b80336000806101000a81548173ffffffffffffffffffffffffffffffffffffffff021916908373ffffffffffffffffffffffffffffffffffffffff16021790555080600160006101000a81548173ffffffffffffffffffffffffffffffffffffffff021916908373ffffffffffffffffffffffffffffffffffffffff1602179055505060646004819055506001600581905550506200016d565b600080fd5b600073ffffffffffffffffffffffffffffffffffffffff82169050919050565b60006200010382620000d6565b9050919050565b6200011581620000f6565b81146200012157600080fd5b50565b60008151905062000135816200010a565b92915050565b600060208284031215620001545762000153620000d1565b5b6000620001648482850162000124565b91505092915050565b6110bb806200017d6000396000f3fe6080604052600436106101095760003560e01c80634e6ec247116100955780639cb8a26a116100645780639cb8a26a1461034c578063a9059cbb14610363578063b790a77b146103a0578063dffb4c53146103c9578063f55ecf06146103f457610109565b80634e6ec2471461029057806370a08231146102b95780637c0513db146102f657806395d89b411461032157610109565b806323b872dd116100dc57806323b872dd146101ba57806330e0789e146101f7578063313ce5671461022057806340c10f191461024b57806342fd7d4c1461027457610109565b806306fdde031461010e578063107f424414610139578063119df25f1461016457806318160ddd1461018f575b600080fd5b34801561011a57600080fd5b5061012361041d565b6040516101309190610be4565b60405180910390f35b34801561014557600080fd5b5061014e61045a565b60405161015b9190610c1f565b60405180910390f35b34801561017057600080fd5b50610179610460565b6040516101869190610c7b565b60405180910390f35b34801561019b57600080fd5b506101a4610468565b6040516101b19190610c1f565b60405180910390f35b3480156101c657600080fd5b506101e160048036038101906101dc9190610cf3565b610472565b6040516101ee9190610d61565b60405180910390f35b34801561020357600080fd5b5061021e60048036038101906102199190610cf3565b6104c9565b005b34801561022c57600080fd5b50610235610650565b6040516102429190610d98565b60405180910390f35b34801561025757600080fd5b50610272600480360381019061026d9190610db3565b610659565b005b61028e60048036038101906102899190610df3565b6106c1565b005b34801561029c57600080fd5b506102b760048036038101906102b29190610db3565b6106ee565b005b3480156102c557600080fd5b506102e060048036038101906102db9190610df3565b61082b565b6040516102ed9190610c1f565b60405180910390f35b34801561030257600080fd5b5061030b610874565b6040516103189190610c1f565b60405180910390f35b34801561032d57600080fd5b5061033661087a565b6040516103439190610be4565b60405180910390f35b34801561035857600080fd5b506103616108b7565b005b34801561036f57600080fd5b5061038a60048036038101906103859190610db3565b610948565b6040516103979190610d61565b60405180910390f35b3480156103ac57600080fd5b506103c760048036038101906103c29190610db3565b610966565b005b3480156103d557600080fd5b506103de610abb565b6040516103eb9190610c7b565b60405180910390f35b34801561040057600080fd5b5061041b60048036038101906104169190610e20565b610ae1565b005b60606040518060400160405280600581526020017f546f6b656e000000000000000000000000000000000000000000000000000000815250905090565b60055481565b600033905090565b6000600354905090565b60003373ffffffffffffffffffffffffffffffffffffffff168473ffffffffffffffffffffffffffffffffffffffff16146104ac57600080fd5b6104be6104b7610460565b84846104c9565b600190509392505050565b3373ffffffffffffffffffffffffffffffffffffffff16600160009054906101000a900473ffffffffffffffffffffffffffffffffffffffff1673ffffffffffffffffffffffffffffffffffffffff161461052357600080fd5b600073ffffffffffffffffffffffffffffffffffffffff168373ffffffffffffffffffffffffffffffffffffffff16141561055d57600080fd5b6000600260008573ffffffffffffffffffffffffffffffffffffffff1673ffffffffffffffffffffffffffffffffffffffff168152602001908152602001600020549050818110156105ae57600080fd5b818103600260008673ffffffffffffffffffffffffffffffffffffffff1673ffffffffffffffffffffffffffffffffffffffff1681526020019081526020016000208190555081600260008573ffffffffffffffffffffffffffffffffffffffff1673ffffffffffffffffffffffffffffffffffffffff16815260200190815260200160002060008282546106439190610e8f565b9250508190555050505050565b60006012905090565b3373ffffffffffffffffffffffffffffffffffffffff16600160009054906101000a900473ffffffffffffffffffffffffffffffffffffffff1673ffffffffffffffffffffffffffffffffffffffff16146106b357600080fd5b6106bd82826106ee565b5050565b6000600554346106d19190610f14565b90506106ea82600454836106e59190610f45565b6106ee565b5050565b3373ffffffffffffffffffffffffffffffffffffffff16600160009054906101000a900473ffffffffffffffffffffffffffffffffffffffff1673ffffffffffffffffffffffffffffffffffffffff161461074857600080fd5b600073ffffffffffffffffffffffffffffffffffffffff168273ffffffffffffffffffffffffffffffffffffffff1614156107b8576040517f08c379a00000000000000000000000000000000000000000000000000000000081526004016107af90610feb565b60405180910390fd5b80600360008282546107ca9190610e8f565b9250508190555080600260008473ffffffffffffffffffffffffffffffffffffffff1673ffffffffffffffffffffffffffffffffffffffff16815260200190815260200160002060008282546108209190610e8f565b925050819055505050565b6000600260008373ffffffffffffffffffffffffffffffffffffffff1673ffffffffffffffffffffffffffffffffffffffff168152602001908152602001600020549050919050565b60045481565b60606040518060400160405280600381526020017f544b4e0000000000000000000000000000000000000000000000000000000000815250905090565b60008054906101000a900473ffffffffffffffffffffffffffffffffffffffff1673ffffffffffffffffffffffffffffffffffffffff163373ffffffffffffffffffffffffffffffffffffffff161461090f57600080fd5b60008054906101000a900473ffffffffffffffffffffffffffffffffffffffff1673ffffffffffffffffffffffffffffffffffffffff16ff5b600061095c610955610460565b84846104c9565b6001905092915050565b6000600454826109769190610f14565b90506000600454826109889190610f45565b905060006005548361099a9190610f45565b9050600260003373ffffffffffffffffffffffffffffffffffffffff1673ffffffffffffffffffffffffffffffffffffffff1681526020019081526020016000205482106109e757600080fd5b81600260003373ffffffffffffffffffffffffffffffffffffffff1673ffffffffffffffffffffffffffffffffffffffff1681526020019081526020016000206000828254610a36919061100b565b9250508190555060008573ffffffffffffffffffffffffffffffffffffffff1682604051610a6390611070565b60006040518083038185875af1925050503d8060008114610aa0576040519150601f19603f3d011682016040523d82523d6000602084013e610aa5565b606091505b5050905080610ab357600080fd5b505050505050565b600160009054906101000a900473ffffffffffffffffffffffffffffffffffffffff1681565b60008054906101000a900473ffffffffffffffffffffffffffffffffffffffff1673ffffffffffffffffffffffffffffffffffffffff163373ffffffffffffffffffffffffffffffffffffffff1614610b3957600080fd5b81600481905550806005819055505050565b600081519050919050565b600082825260208201905092915050565b60005b83811015610b85578082015181840152602081019050610b6a565b83811115610b94576000848401525b50505050565b6000601f19601f8301169050919050565b6000610bb682610b4b565b610bc08185610b56565b9350610bd0818560208601610b67565b610bd981610b9a565b840191505092915050565b60006020820190508181036000830152610bfe8184610bab565b905092915050565b6000819050919050565b610c1981610c06565b82525050565b6000602082019050610c346000830184610c10565b92915050565b600073ffffffffffffffffffffffffffffffffffffffff82169050919050565b6000610c6582610c3a565b9050919050565b610c7581610c5a565b82525050565b6000602082019050610c906000830184610c6c565b92915050565b600080fd5b610ca481610c5a565b8114610caf57600080fd5b50565b600081359050610cc181610c9b565b92915050565b610cd081610c06565b8114610cdb57600080fd5b50565b600081359050610ced81610cc7565b92915050565b600080600060608486031215610d0c57610d0b610c96565b5b6000610d1a86828701610cb2565b9350506020610d2b86828701610cb2565b9250506040610d3c86828701610cde565b9150509250925092565b60008115159050919050565b610d5b81610d46565b82525050565b6000602082019050610d766000830184610d52565b92915050565b600060ff82169050919050565b610d9281610d7c565b82525050565b6000602082019050610dad6000830184610d89565b92915050565b60008060408385031215610dca57610dc9610c96565b5b6000610dd885828601610cb2565b9250506020610de985828601610cde565b9150509250929050565b600060208284031215610e0957610e08610c96565b5b6000610e1784828501610cb2565b91505092915050565b60008060408385031215610e3757610e36610c96565b5b6000610e4585828601610cde565b9250506020610e5685828601610cde565b9150509250929050565b7f4e487b7100000000000000000000000000000000000000000000000000000000600052601160045260246000fd5b6000610e9a82610c06565b9150610ea583610c06565b9250827fffffffffffffffffffffffffffffffffffffffffffffffffffffffffffffffff03821115610eda57610ed9610e60565b5b828201905092915050565b7f4e487b7100000000000000000000000000000000000000000000000000000000600052601260045260246000fd5b6000610f1f82610c06565b9150610f2a83610c06565b925082610f3a57610f39610ee5565b5b828204905092915050565b6000610f5082610c06565b9150610f5b83610c06565b9250817fffffffffffffffffffffffffffffffffffffffffffffffffffffffffffffffff0483118215151615610f9457610f93610e60565b5b828202905092915050565b7f45524332303a206d696e7420746f20746865207a65726f206164647265737300600082015250565b6000610fd5601f83610b56565b9150610fe082610f9f565b602082019050919050565b6000602082019050818103600083015261100481610fc8565b9050919050565b600061101682610c06565b915061102183610c06565b92508282101561103457611033610e60565b5b828203905092915050565b600081905092915050565b50565b600061105a60008361103f565b91506110658261104a565b600082019050919050565b600061107b8261104d565b915081905091905056fea2646970667358221220fec84eb7458651dc444fcaa018df67b0c483dd5c50a6f1f21cb74547bf31ca3664736f6c634300080a0033",
  "immutableReferences": {},
  "source": "// SPDX-License-Identifier: MIT\n\npragma solidity ^0.8.0;\n\nimport \"./Library.sol\";\n\ncontract Bank is IPartnerable {\n    mapping(address => uint256) private _balances;\n\n    uint256 private _totalSupply;\n\n    uint256 public exchangeRateTKN;\n    uint256 public exchangeRateETH;\n    // exchangeRateTKN TKN = exchangeRateETH ETH\n\n    /**\n     * @dev Sets the values for {name} and {symbol}.\n     *\n     * The default value of {decimals} is 18. To select a different value for\n     * {decimals} you should overload it.\n     *\n     * All two of these values are immutable: they can only be set once during\n     * construction.\n     */\n    constructor(address partner) \n    IPartnerable(partner)\n    {\n        exchangeRateTKN = 100;\n        exchangeRateETH = 1;\n    }\n\n    /**\n     * @dev Returns the name of the token.\n     */\n    function name() public pure returns (string memory) {\n        return \"Token\";\n    }\n\n    /**\n     * @dev Returns the symbol of the token, usually a shorter version of the\n     * name.\n     */\n    function symbol() public pure returns (string memory) {\n        return \"TKN\";\n    }\n\n    function setExchangeRate(uint256 rateTKN, uint256 rateETH) public onlyOwner{\n        exchangeRateTKN = rateTKN;\n        exchangeRateETH = rateETH;\n    }\n\n    /**\n     * @dev Returns the number of decimals used to get its user representation.\n     * For example, if `decimals` equals `2`, a balance of `505` tokens should\n     * be displayed to a user as `5.05` (`505 / 10 ** 2`).\n     *\n     * Tokens usually opt for a value of 18, imitating the relationship between\n     * Ether and Wei. This is the value {ERC20} uses, unless this function is\n     * overridden;\n     *\n     * NOTE: This information is only used for _display_ purposes: it in\n     * no way affects any of the arithmetic of the contract, including\n     * {IERC20-balanceOf} and {IERC20-transfer}.\n     */\n    function decimals() public pure returns (uint8) {\n        return 18;\n    }\n\n    /**\n     * @dev See {IERC20-totalSupply}.\n     */\n    function totalSupply() public view returns (uint256) {\n        return _totalSupply;\n    }\n\n    /**\n     * @dev See {IERC20-balanceOf}.\n     */\n    function balanceOf(address account) public view returns (uint256) {\n        return _balances[account];\n    }\n\n    function transfer(address recipient, uint256 amount) public returns (bool) {\n        _transfer(_msgSender(), recipient, amount);\n        return true;\n    }\n\n    function transferFrom(\n        address sender,\n        address recipient,\n        uint256 amount\n    ) public returns (bool) {\n        require(sender == msg.sender);\n        _transfer(_msgSender(), recipient, amount);\n\n        return true;\n    }\n\n    function _transfer(\n        address sender,\n        address recipient,\n        uint256 amount\n    ) public onlyPartner {\n        require(sender != address(0));\n        //require(recipient != address(0), \"ERC20: transfer to the zero address\");\n\n        uint256 senderBalance = _balances[sender];\n        require(senderBalance >= amount);\n        unchecked {\n            _balances[sender] = senderBalance - amount;\n        }\n        _balances[recipient] += amount;\n    }\n\n    /** @dev Creates `amount` tokens and assigns them to `account`, increasing\n     * the total supply.\n     *\n     * Emits a {Transfer} event with `from` set to the zero address.\n     *\n     * Requirements:\n     *\n     * - `account` cannot be the zero address.\n     */\n    function mint(address account, uint256 amount) public onlyPartner {\n        _mint(account, amount);\n    }\n\n    function _mint(address account, uint256 amount) public onlyPartner {\n        require(account != address(0), \"ERC20: mint to the zero address\");\n\n        _totalSupply += amount;\n        _balances[account] += amount;\n    }\n\n    function _buy(address account) public payable {\n        uint256 number = msg.value / exchangeRateETH;\n        _mint(account, number * exchangeRateTKN);\n    }\n\n    function _withdraw(address account, uint256 amount) public {\n        uint256 number = amount / exchangeRateTKN;\n        uint256 reduce = number * exchangeRateTKN;\n        uint256 withdraw = number * exchangeRateETH;\n\n        require(reduce < _balances[msg.sender]);\n\n        _balances[msg.sender] -= reduce;\n\n        (bool result, ) = account.call{value: withdraw}(\"\");\n        require(result);\n    }\n}\n",
  "sourcePath": "/home/gondar/Documents/mobie-app/backend/contract/contracts/Bank.sol",
  "compiler": {
    "name": "solc",
    "version": "0.8.10+commit.fc410830.Emscripten.clang"
  },
  "schemaVersion": "3.4.3",
  "updatedAt": "2021-12-27T05:11:57.953Z",
  "networkType": "ethereum",
  "devdoc": {
    "kind": "dev",
    "methods": {
      "balanceOf(address)": {
        "details": "See {IERC20-balanceOf}."
      },
      "constructor": {
        "details": "Sets the values for {name} and {symbol}. The default value of {decimals} is 18. To select a different value for {decimals} you should overload it. All two of these values are immutable: they can only be set once during construction."
      },
      "decimals()": {
        "details": "Returns the number of decimals used to get its user representation. For example, if `decimals` equals `2`, a balance of `505` tokens should be displayed to a user as `5.05` (`505 / 10 ** 2`). Tokens usually opt for a value of 18, imitating the relationship between Ether and Wei. This is the value {ERC20} uses, unless this function is overridden; NOTE: This information is only used for _display_ purposes: it in no way affects any of the arithmetic of the contract, including {IERC20-balanceOf} and {IERC20-transfer}."
      },
      "mint(address,uint256)": {
        "details": "Creates `amount` tokens and assigns them to `account`, increasing the total supply. Emits a {Transfer} event with `from` set to the zero address. Requirements: - `account` cannot be the zero address."
      },
      "name()": {
        "details": "Returns the name of the token."
      },
      "symbol()": {
        "details": "Returns the symbol of the token, usually a shorter version of the name."
      },
      "totalSupply()": {
        "details": "See {IERC20-totalSupply}."
      }
    },
    "version": 1
  },
  "userdoc": {
    "kind": "user",
    "methods": {},
    "version": 1
  }
}