{
  "contractName": "MarketPlace",
  "abi": [
    {
      "inputs": [
        {
          "internalType": "address",
          "name": "bankAddr",
          "type": "address"
        }
      ],
      "stateMutability": "nonpayable",
      "type": "constructor"
    },
    {
      "inputs": [],
      "name": "_lastTokenCreated",
      "outputs": [
        {
          "internalType": "uint256",
          "name": "",
          "type": "uint256"
        }
      ],
      "stateMutability": "view",
      "type": "function",
      "constant": true
    },
    {
      "inputs": [],
      "name": "_msgSender",
      "outputs": [
        {
          "internalType": "address",
          "name": "",
          "type": "address"
        }
      ],
      "stateMutability": "view",
      "type": "function",
      "constant": true
    },
    {
      "inputs": [],
      "name": "_numberOfTokens",
      "outputs": [
        {
          "internalType": "uint256",
          "name": "",
          "type": "uint256"
        }
      ],
      "stateMutability": "view",
      "type": "function",
      "constant": true
    },
    {
      "inputs": [
        {
          "internalType": "uint256",
          "name": "",
          "type": "uint256"
        }
      ],
      "name": "_owners",
      "outputs": [
        {
          "internalType": "address",
          "name": "",
          "type": "address"
        }
      ],
      "stateMutability": "view",
      "type": "function",
      "constant": true
    },
    {
      "inputs": [],
      "name": "_partner",
      "outputs": [
        {
          "internalType": "address",
          "name": "",
          "type": "address"
        }
      ],
      "stateMutability": "view",
      "type": "function",
      "constant": true
    },
    {
      "inputs": [
        {
          "internalType": "uint256",
          "name": "",
          "type": "uint256"
        }
      ],
      "name": "_tokenLinkedList",
      "outputs": [
        {
          "internalType": "uint256",
          "name": "",
          "type": "uint256"
        }
      ],
      "stateMutability": "view",
      "type": "function",
      "constant": true
    },
    {
      "inputs": [],
      "name": "bank",
      "outputs": [
        {
          "internalType": "contract Bank",
          "name": "",
          "type": "address"
        }
      ],
      "stateMutability": "view",
      "type": "function",
      "constant": true
    },
    {
      "inputs": [
        {
          "internalType": "uint256",
          "name": "",
          "type": "uint256"
        }
      ],
      "name": "product",
      "outputs": [
        {
          "internalType": "uint256",
          "name": "salePrice",
          "type": "uint256"
        },
        {
          "internalType": "string",
          "name": "title",
          "type": "string"
        },
        {
          "internalType": "string",
          "name": "image",
          "type": "string"
        },
        {
          "internalType": "string",
          "name": "description",
          "type": "string"
        },
        {
          "internalType": "uint256",
          "name": "size",
          "type": "uint256"
        }
      ],
      "stateMutability": "view",
      "type": "function",
      "constant": true
    },
    {
      "inputs": [],
      "name": "selfDestruct",
      "outputs": [],
      "stateMutability": "nonpayable",
      "type": "function"
    },
    {
      "inputs": [],
      "name": "name",
      "outputs": [
        {
          "internalType": "string",
          "name": "",
          "type": "string"
        }
      ],
      "stateMutability": "pure",
      "type": "function",
      "constant": true
    },
    {
      "inputs": [],
      "name": "symbol",
      "outputs": [
        {
          "internalType": "string",
          "name": "",
          "type": "string"
        }
      ],
      "stateMutability": "pure",
      "type": "function",
      "constant": true
    },
    {
      "inputs": [
        {
          "internalType": "uint256",
          "name": "tokenId",
          "type": "uint256"
        }
      ],
      "name": "ownerOf",
      "outputs": [
        {
          "internalType": "address",
          "name": "",
          "type": "address"
        }
      ],
      "stateMutability": "view",
      "type": "function",
      "constant": true
    },
    {
      "inputs": [
        {
          "internalType": "address",
          "name": "account",
          "type": "address"
        }
      ],
      "name": "tokensOwned",
      "outputs": [
        {
          "internalType": "uint256[]",
          "name": "",
          "type": "uint256[]"
        }
      ],
      "stateMutability": "view",
      "type": "function",
      "constant": true
    },
    {
      "inputs": [
        {
          "internalType": "address",
          "name": "account",
          "type": "address"
        }
      ],
      "name": "balanceOf",
      "outputs": [
        {
          "internalType": "uint256",
          "name": "",
          "type": "uint256"
        }
      ],
      "stateMutability": "view",
      "type": "function",
      "constant": true
    },
    {
      "inputs": [
        {
          "internalType": "address",
          "name": "from",
          "type": "address"
        },
        {
          "internalType": "address",
          "name": "to",
          "type": "address"
        },
        {
          "internalType": "uint256",
          "name": "tokenId",
          "type": "uint256"
        }
      ],
      "name": "safeTransferFrom",
      "outputs": [],
      "stateMutability": "nonpayable",
      "type": "function"
    },
    {
      "inputs": [
        {
          "internalType": "address",
          "name": "from",
          "type": "address"
        },
        {
          "internalType": "address",
          "name": "to",
          "type": "address"
        },
        {
          "internalType": "uint256",
          "name": "tokenId",
          "type": "uint256"
        }
      ],
      "name": "transferFrom",
      "outputs": [],
      "stateMutability": "nonpayable",
      "type": "function"
    },
    {
      "inputs": [
        {
          "internalType": "address",
          "name": "from",
          "type": "address"
        },
        {
          "internalType": "address",
          "name": "to",
          "type": "address"
        },
        {
          "internalType": "uint256",
          "name": "tokenId",
          "type": "uint256"
        }
      ],
      "name": "_transferERC721Partner",
      "outputs": [],
      "stateMutability": "nonpayable",
      "type": "function"
    },
    {
      "inputs": [
        {
          "internalType": "address",
          "name": "to",
          "type": "address"
        },
        {
          "internalType": "uint256",
          "name": "tokenId",
          "type": "uint256"
        }
      ],
      "name": "mint",
      "outputs": [],
      "stateMutability": "nonpayable",
      "type": "function"
    },
    {
      "inputs": [
        {
          "internalType": "uint256",
          "name": "tokenId",
          "type": "uint256"
        }
      ],
      "name": "_exists",
      "outputs": [
        {
          "internalType": "bool",
          "name": "",
          "type": "bool"
        }
      ],
      "stateMutability": "view",
      "type": "function",
      "constant": true
    },
    {
      "inputs": [
        {
          "internalType": "uint256",
          "name": "tokenId",
          "type": "uint256"
        }
      ],
      "name": "getProduct",
      "outputs": [
        {
          "components": [
            {
              "internalType": "uint256",
              "name": "salePrice",
              "type": "uint256"
            },
            {
              "internalType": "string",
              "name": "title",
              "type": "string"
            },
            {
              "internalType": "string",
              "name": "image",
              "type": "string"
            },
            {
              "internalType": "string",
              "name": "description",
              "type": "string"
            },
            {
              "internalType": "uint256",
              "name": "size",
              "type": "uint256"
            },
            {
              "internalType": "uint256[]",
              "name": "otherInfo",
              "type": "uint256[]"
            }
          ],
          "internalType": "struct Product",
          "name": "",
          "type": "tuple"
        }
      ],
      "stateMutability": "view",
      "type": "function",
      "constant": true
    },
    {
      "inputs": [
        {
          "internalType": "uint256",
          "name": "tokenId",
          "type": "uint256"
        },
        {
          "internalType": "uint256",
          "name": "salePrice",
          "type": "uint256"
        },
        {
          "internalType": "string",
          "name": "title",
          "type": "string"
        },
        {
          "internalType": "string",
          "name": "image",
          "type": "string"
        },
        {
          "internalType": "string",
          "name": "description",
          "type": "string"
        },
        {
          "internalType": "uint256",
          "name": "size",
          "type": "uint256"
        },
        {
          "internalType": "uint256[]",
          "name": "otherInfo",
          "type": "uint256[]"
        }
      ],
      "name": "setProductInfo",
      "outputs": [],
      "stateMutability": "nonpayable",
      "type": "function"
    },
    {
      "inputs": [
        {
          "internalType": "uint256",
          "name": "tokenId",
          "type": "uint256"
        },
        {
          "internalType": "uint256",
          "name": "price",
          "type": "uint256"
        }
      ],
      "name": "setSalePrice",
      "outputs": [],
      "stateMutability": "nonpayable",
      "type": "function"
    },
    {
      "inputs": [
        {
          "internalType": "uint256",
          "name": "tokenId",
          "type": "uint256"
        }
      ],
      "name": "cancelSale",
      "outputs": [],
      "stateMutability": "nonpayable",
      "type": "function"
    },
    {
      "inputs": [
        {
          "internalType": "uint256",
          "name": "tokenId",
          "type": "uint256"
        }
      ],
      "name": "buy",
      "outputs": [],
      "stateMutability": "payable",
      "type": "function",
      "payable": true
    },
    {
      "inputs": [
        {
          "internalType": "uint256",
          "name": "tokenId",
          "type": "uint256"
        },
        {
          "internalType": "uint256",
          "name": "budget",
          "type": "uint256"
        }
      ],
      "name": "buyWithBudget",
      "outputs": [],
      "stateMutability": "payable",
      "type": "function",
      "payable": true
    },
    {
      "inputs": [
        {
          "internalType": "uint256",
          "name": "tokenId",
          "type": "uint256"
        }
      ],
      "name": "getSalePrice",
      "outputs": [
        {
          "internalType": "uint256",
          "name": "",
          "type": "uint256"
        }
      ],
      "stateMutability": "view",
      "type": "function",
      "constant": true
    },
    {
      "inputs": [
        {
          "internalType": "uint256",
          "name": "indexFirst",
          "type": "uint256"
        },
        {
          "internalType": "uint256",
          "name": "amount",
          "type": "uint256"
        }
      ],
      "name": "browseMarketItems",
      "outputs": [
        {
          "internalType": "uint256[]",
          "name": "",
          "type": "uint256[]"
        }
      ],
      "stateMutability": "view",
      "type": "function",
      "constant": true
    },
    {
      "inputs": [
        {
          "internalType": "uint256",
          "name": "tokenId",
          "type": "uint256"
        },
        {
          "internalType": "uint256",
          "name": "sellPrice",
          "type": "uint256"
        },
        {
          "internalType": "bytes",
          "name": "signature",
          "type": "bytes"
        }
      ],
      "name": "buyWithCoupon",
      "outputs": [],
      "stateMutability": "nonpayable",
      "type": "function"
    },
    {
      "inputs": [],
      "name": "BuyCurrency",
      "outputs": [],
      "stateMutability": "payable",
      "type": "function",
      "payable": true
    }
  ],
  "bytecode": "0x60806040523480156200001157600080fd5b5060405162003f4238038062003f42833981810160405281019062000037919062000231565b6000336000806101000a81548173ffffffffffffffffffffffffffffffffffffffff021916908373ffffffffffffffffffffffffffffffffffffffff16021790555080600160006101000a81548173ffffffffffffffffffffffffffffffffffffffff021916908373ffffffffffffffffffffffffffffffffffffffff16021790555050600073ffffffffffffffffffffffffffffffffffffffff168173ffffffffffffffffffffffffffffffffffffffff1614156200017057306040516200010090620001b9565b6200010c919062000274565b604051809103906000f08015801562000129573d6000803e3d6000fd5b50600760006101000a81548173ffffffffffffffffffffffffffffffffffffffff021916908373ffffffffffffffffffffffffffffffffffffffff160217905550620001b2565b80600760006101000a81548173ffffffffffffffffffffffffffffffffffffffff021916908373ffffffffffffffffffffffffffffffffffffffff1602179055505b5062000291565b6112388062002d0a83390190565b600080fd5b600073ffffffffffffffffffffffffffffffffffffffff82169050919050565b6000620001f982620001cc565b9050919050565b6200020b81620001ec565b81146200021757600080fd5b50565b6000815190506200022b8162000200565b92915050565b6000602082840312156200024a5762000249620001c7565b5b60006200025a848285016200021a565b91505092915050565b6200026e81620001ec565b82525050565b60006020820190506200028b600083018462000263565b92915050565b612a6980620002a16000396000f3fe6080604052600436106101c25760003560e01c806370a08231116100f75780639cb8a26a11610095578063d96a094a11610064578063d96a094a1461063a578063dffb4c5314610656578063f8e76cc014610681578063f8eb5fc5146106be576101c2565b80639cb8a26a14610580578063b9db15b414610597578063bd94b005146105d4578063bf9d52ef146105fd576101c2565b8063780bd3f1116100d1578063780bd3f1146104bb57806385bd35cb146104fc57806395d89b4114610518578063992924a614610543576101c2565b806370a082311461041657806374ee63c31461045357806376cdb03b14610490576101c2565b806331d427d11161016457806354e5175b1161013e57806354e5175b1461035c57806360eeef80146103855780636352211e146103b05780636fa1a357146103ed576101c2565b806331d427d1146102df57806340c10f191461030a57806342842e0e14610333576101c2565b80631f838ddc116101a05780631f838ddc1461024657806321cda7901461025057806323b872dd1461028d578063278ea5b9146102b6576101c2565b8063053992c5146101c757806306fdde03146101f0578063119df25f1461021b575b600080fd5b3480156101d357600080fd5b506101ee60048036038101906101e99190611df3565b6106fb565b005b3480156101fc57600080fd5b5061020561075a565b6040516102129190611ecc565b60405180910390f35b34801561022757600080fd5b50610230610797565b60405161023d9190611f2f565b60405180910390f35b61024e61079f565b005b34801561025c57600080fd5b5061027760048036038101906102729190611f76565b61082f565b6040516102849190612061565b60405180910390f35b34801561029957600080fd5b506102b460048036038101906102af9190612083565b610a06565b005b3480156102c257600080fd5b506102dd60048036038101906102d8919061213b565b610a4e565b005b3480156102eb57600080fd5b506102f4610cba565b60405161030191906121be565b60405180910390f35b34801561031657600080fd5b50610331600480360381019061032c91906121d9565b610cc0565b005b34801561033f57600080fd5b5061035a60048036038101906103559190612083565b610d26565b005b34801561036857600080fd5b50610383600480360381019061037e9190612083565b610d6e565b005b34801561039157600080fd5b5061039a610dd8565b6040516103a791906121be565b60405180910390f35b3480156103bc57600080fd5b506103d760048036038101906103d29190612219565b610dde565b6040516103e49190611f2f565b60405180910390f35b3480156103f957600080fd5b50610414600480360381019061040f91906122f2565b610e90565b005b34801561042257600080fd5b5061043d60048036038101906104389190611f76565b611041565b60405161044a91906121be565b60405180910390f35b34801561045f57600080fd5b5061047a60048036038101906104759190611df3565b611170565b6040516104879190612061565b60405180910390f35b34801561049c57600080fd5b506104a5611286565b6040516104b29190612475565b60405180910390f35b3480156104c757600080fd5b506104e260048036038101906104dd9190612219565b6112ac565b6040516104f3959493929190612490565b60405180910390f35b61051660048036038101906105119190611df3565b61147a565b005b34801561052457600080fd5b5061052d6114bc565b60405161053a9190611ecc565b60405180910390f35b34801561054f57600080fd5b5061056a60048036038101906105659190612219565b6114f9565b6040516105779190611f2f565b60405180910390f35b34801561058c57600080fd5b5061059561152c565b005b3480156105a357600080fd5b506105be60048036038101906105b99190612219565b6115bd565b6040516105cb919061264f565b60405180910390f35b3480156105e057600080fd5b506105fb60048036038101906105f69190612219565b611824565b005b34801561060957600080fd5b50610624600480360381019061061f9190612219565b611832565b60405161063191906121be565b60405180910390f35b610654600480360381019061064f9190612219565b61184a565b005b34801561066257600080fd5b5061066b611939565b6040516106789190611f2f565b60405180910390f35b34801561068d57600080fd5b506106a860048036038101906106a39190612219565b61195f565b6040516106b5919061268c565b60405180910390f35b3480156106ca57600080fd5b506106e560048036038101906106e09190612219565b6119cb565b6040516106f291906121be565b60405180910390f35b61070482610dde565b73ffffffffffffffffffffffffffffffffffffffff163373ffffffffffffffffffffffffffffffffffffffff161461073b57600080fd5b8060066000848152602001908152602001600020600001819055505050565b60606040518060400160405280600581526020017f546f6b656e000000000000000000000000000000000000000000000000000000815250905090565b600033905090565b600760009054906101000a900473ffffffffffffffffffffffffffffffffffffffff1673ffffffffffffffffffffffffffffffffffffffff166342fd7d4c34336040518363ffffffff1660e01b81526004016107fb9190611f2f565b6000604051808303818588803b15801561081457600080fd5b505af1158015610828573d6000803e3d6000fd5b5050505050565b6060600060036000808152602001908152602001600020549050600060055467ffffffffffffffff811115610867576108666126a7565b5b6040519080825280602002602001820160405280156108955781602001602082028036833780820191505090505b50905060005b60008314610954578473ffffffffffffffffffffffffffffffffffffffff166002600085815260200190815260200160002060009054906101000a900473ffffffffffffffffffffffffffffffffffffffff1673ffffffffffffffffffffffffffffffffffffffff161415610939578282828151811061091e5761091d6126d6565b5b602002602001018181525050808061093590612734565b9150505b6003600084815260200190815260200160002054925061089b565b60008167ffffffffffffffff8111156109705761096f6126a7565b5b60405190808252806020026020018201604052801561099e5781602001602082028036833780820191505090505b50905060005b828110156109f9578381815181106109bf576109be6126d6565b5b60200260200101518282815181106109da576109d96126d6565b5b60200260200101818152505080806109f190612734565b9150506109a4565b5080945050505050919050565b3373ffffffffffffffffffffffffffffffffffffffff168373ffffffffffffffffffffffffffffffffffffffff1614610a3e57600080fd5b610a498383836119fe565b505050565b60006002600086815260200190815260200160002060009054906101000a900473ffffffffffffffffffffffffffffffffffffffff1690506000610a90610797565b9050610a9b8661195f565b610aa457600080fd5b84600760009054906101000a900473ffffffffffffffffffffffffffffffffffffffff1673ffffffffffffffffffffffffffffffffffffffff166370a08231836040518263ffffffff1660e01b8152600401610b009190611f2f565b602060405180830381865afa158015610b1d573d6000803e3d6000fd5b505050506040513d601f19601f82011682018060405250810190610b419190612792565b1015610b4c57600080fd5b6000610b57876119cb565b14610b6157600080fd5b6000868684604051602001610b7893929190612828565b6040516020818303038152906040528051906020012090508273ffffffffffffffffffffffffffffffffffffffff16610bf58287878080601f016020809104026020016040519081016040528093929190818152602001838380828437600081840152601f19601f82011690508083019250505050505050611aeb565b73ffffffffffffffffffffffffffffffffffffffff1614610c1557600080fd5b600760009054906101000a900473ffffffffffffffffffffffffffffffffffffffff1673ffffffffffffffffffffffffffffffffffffffff166330e0789e8385896040518463ffffffff1660e01b8152600401610c7493929190612865565b600060405180830381600087803b158015610c8e57600080fd5b505af1158015610ca2573d6000803e3d6000fd5b50505050610cb18383896119fe565b50505050505050565b60055481565b60008054906101000a900473ffffffffffffffffffffffffffffffffffffffff1673ffffffffffffffffffffffffffffffffffffffff163373ffffffffffffffffffffffffffffffffffffffff1614610d1857600080fd5b610d228282611b60565b5050565b3373ffffffffffffffffffffffffffffffffffffffff168373ffffffffffffffffffffffffffffffffffffffff1614610d5e57600080fd5b610d698383836119fe565b505050565b3373ffffffffffffffffffffffffffffffffffffffff16600160009054906101000a900473ffffffffffffffffffffffffffffffffffffffff1673ffffffffffffffffffffffffffffffffffffffff1614610dc857600080fd5b610dd38383836119fe565b505050565b60045481565b6000806002600084815260200190815260200160002060009054906101000a900473ffffffffffffffffffffffffffffffffffffffff169050600073ffffffffffffffffffffffffffffffffffffffff168173ffffffffffffffffffffffffffffffffffffffff161415610e87576040517f08c379a0000000000000000000000000000000000000000000000000000000008152600401610e7e9061290e565b60405180910390fd5b80915050919050565b6000610e9b8c610dde565b9050600073ffffffffffffffffffffffffffffffffffffffff168173ffffffffffffffffffffffffffffffffffffffff161415610ed757600080fd5b8073ffffffffffffffffffffffffffffffffffffffff163373ffffffffffffffffffffffffffffffffffffffff161480610f5c575060008054906101000a900473ffffffffffffffffffffffffffffffffffffffff1673ffffffffffffffffffffffffffffffffffffffff163373ffffffffffffffffffffffffffffffffffffffff16145b610f6557600080fd5b8a600660008e8152602001908152602001600020600001819055508989600660008f81526020019081526020016000206001019190610fa5929190611c8d565b508787600660008f81526020019081526020016000206002019190610fcb929190611c8d565b508585600660008f81526020019081526020016000206003019190610ff1929190611c8d565b5083600660008e8152602001908152602001600020600401819055508282600660008f81526020019081526020016000206005019190611032929190611d13565b50505050505050505050505050565b60008060036000808152602001908152602001600020549050600060055467ffffffffffffffff811115611078576110776126a7565b5b6040519080825280602002602001820160405280156110a65781602001602082028036833780820191505090505b50905060005b60008314611165578473ffffffffffffffffffffffffffffffffffffffff166002600085815260200190815260200160002060009054906101000a900473ffffffffffffffffffffffffffffffffffffffff1673ffffffffffffffffffffffffffffffffffffffff16141561114a578282828151811061112f5761112e6126d6565b5b602002602001018181525050808061114690612734565b9150505b600360008481526020019081526020016000205492506110ac565b809350505050919050565b606060006003600080815260200190815260200160002054905060008367ffffffffffffffff8111156111a6576111a56126a7565b5b6040519080825280602002602001820160405280156111d45781602001602082028036833780820191505090505b50905060005b600083141580156111ea57508481105b1561127a576000600660008581526020019081526020016000206000015490506000811461125e57600087111561122e5786806112269061292e565b97505061125d565b83838381518110611242576112416126d6565b5b602002602001018181525050818061125990612734565b9250505b5b60036000858152602001908152602001600020549350506111da565b81935050505092915050565b600760009054906101000a900473ffffffffffffffffffffffffffffffffffffffff1681565b60066020528060005260406000206000915090508060000154908060010180546112d590612987565b80601f016020809104026020016040519081016040528092919081815260200182805461130190612987565b801561134e5780601f106113235761010080835404028352916020019161134e565b820191906000526020600020905b81548152906001019060200180831161133157829003601f168201915b50505050509080600201805461136390612987565b80601f016020809104026020016040519081016040528092919081815260200182805461138f90612987565b80156113dc5780601f106113b1576101008083540402835291602001916113dc565b820191906000526020600020905b8154815290600101906020018083116113bf57829003601f168201915b5050505050908060030180546113f190612987565b80601f016020809104026020016040519081016040528092919081815260200182805461141d90612987565b801561146a5780601f1061143f5761010080835404028352916020019161146a565b820191906000526020600020905b81548152906001019060200180831161144d57829003601f168201915b5050505050908060040154905085565b600034111561148c5761148b61079f565b5b60066000838152602001908152602001600020600001548110156114af57600080fd5b6114b88261184a565b5050565b60606040518060400160405280600381526020017f544b4e0000000000000000000000000000000000000000000000000000000000815250905090565b60026020528060005260406000206000915054906101000a900473ffffffffffffffffffffffffffffffffffffffff1681565b60008054906101000a900473ffffffffffffffffffffffffffffffffffffffff1673ffffffffffffffffffffffffffffffffffffffff163373ffffffffffffffffffffffffffffffffffffffff161461158457600080fd5b60008054906101000a900473ffffffffffffffffffffffffffffffffffffffff1673ffffffffffffffffffffffffffffffffffffffff16ff5b6115c5611d60565b6115ce8261195f565b6115d757600080fd5b6000600660008481526020019081526020016000206040518060c00160405290816000820154815260200160018201805461161190612987565b80601f016020809104026020016040519081016040528092919081815260200182805461163d90612987565b801561168a5780601f1061165f5761010080835404028352916020019161168a565b820191906000526020600020905b81548152906001019060200180831161166d57829003601f168201915b505050505081526020016002820180546116a390612987565b80601f01602080910402602001604051908101604052809291908181526020018280546116cf90612987565b801561171c5780601f106116f15761010080835404028352916020019161171c565b820191906000526020600020905b8154815290600101906020018083116116ff57829003601f168201915b5050505050815260200160038201805461173590612987565b80601f016020809104026020016040519081016040528092919081815260200182805461176190612987565b80156117ae5780601f10611783576101008083540402835291602001916117ae565b820191906000526020600020905b81548152906001019060200180831161179157829003601f168201915b50505050508152602001600482015481526020016005820180548060200260200160405190810160405280929190818152602001828054801561181057602002820191906000526020600020905b8154815260200190600101908083116117fc575b505050505081525050905080915050919050565b61182f8160006106fb565b50565b60036020528060005260406000206000915090505481565b600034111561185c5761185b61079f565b5b600060066000838152602001908152602001600020600001549050600081141561188557600080fd5b600061189083610dde565b90506000339050600760009054906101000a900473ffffffffffffffffffffffffffffffffffffffff1673ffffffffffffffffffffffffffffffffffffffff166330e0789e8284866040518463ffffffff1660e01b81526004016118f693929190612865565b600060405180830381600087803b15801561191057600080fd5b505af1158015611924573d6000803e3d6000fd5b505050506119338282866119fe565b50505050565b600160009054906101000a900473ffffffffffffffffffffffffffffffffffffffff1681565b60008073ffffffffffffffffffffffffffffffffffffffff166002600084815260200190815260200160002060009054906101000a900473ffffffffffffffffffffffffffffffffffffffff1673ffffffffffffffffffffffffffffffffffffffff1614159050919050565b6000806006600084815260200190815260200160002060000154905060008114156119f557600080fd5b80915050919050565b8273ffffffffffffffffffffffffffffffffffffffff16611a1e82610dde565b73ffffffffffffffffffffffffffffffffffffffff1614611a3e57600080fd5b600073ffffffffffffffffffffffffffffffffffffffff168273ffffffffffffffffffffffffffffffffffffffff161415611a7857600080fd5b816002600083815260200190815260200160002060006101000a81548173ffffffffffffffffffffffffffffffffffffffff021916908373ffffffffffffffffffffffffffffffffffffffff16021790555060006006600083815260200190815260200160002060000181905550505050565b600080600080611afa85611c4a565b80935081945082955050505060018684848460405160008152602001604052604051611b2994939291906129ee565b6020604051602081039080840390855afa158015611b4b573d6000803e3d6000fd5b50505060206040510351935050505092915050565b600073ffffffffffffffffffffffffffffffffffffffff168273ffffffffffffffffffffffffffffffffffffffff161415611b9a57600080fd5b611ba38161195f565b15611bad57600080fd5b6000811415611bbb57600080fd5b816002600083815260200190815260200160002060006101000a81548173ffffffffffffffffffffffffffffffffffffffff021916908373ffffffffffffffffffffffffffffffffffffffff16021790555080600360006004548152602001908152602001600020819055508060048190555060056000815480929190611c4190612734565b91905055505050565b60008060006041845114611c5d57600080fd5b60008060006020870151925060408701519150606087015160001a90508083839550955095505050509193909250565b828054611c9990612987565b90600052602060002090601f016020900481019282611cbb5760008555611d02565b82601f10611cd457803560ff1916838001178555611d02565b82800160010185558215611d02579182015b82811115611d01578235825591602001919060010190611ce6565b5b509050611d0f9190611d96565b5090565b828054828255906000526020600020908101928215611d4f579160200282015b82811115611d4e578235825591602001919060010190611d33565b5b509050611d5c9190611d96565b5090565b6040518060c001604052806000815260200160608152602001606081526020016060815260200160008152602001606081525090565b5b80821115611daf576000816000905550600101611d97565b5090565b600080fd5b600080fd5b6000819050919050565b611dd081611dbd565b8114611ddb57600080fd5b50565b600081359050611ded81611dc7565b92915050565b60008060408385031215611e0a57611e09611db3565b5b6000611e1885828601611dde565b9250506020611e2985828601611dde565b9150509250929050565b600081519050919050565b600082825260208201905092915050565b60005b83811015611e6d578082015181840152602081019050611e52565b83811115611e7c576000848401525b50505050565b6000601f19601f8301169050919050565b6000611e9e82611e33565b611ea88185611e3e565b9350611eb8818560208601611e4f565b611ec181611e82565b840191505092915050565b60006020820190508181036000830152611ee68184611e93565b905092915050565b600073ffffffffffffffffffffffffffffffffffffffff82169050919050565b6000611f1982611eee565b9050919050565b611f2981611f0e565b82525050565b6000602082019050611f446000830184611f20565b92915050565b611f5381611f0e565b8114611f5e57600080fd5b50565b600081359050611f7081611f4a565b92915050565b600060208284031215611f8c57611f8b611db3565b5b6000611f9a84828501611f61565b91505092915050565b600081519050919050565b600082825260208201905092915050565b6000819050602082019050919050565b611fd881611dbd565b82525050565b6000611fea8383611fcf565b60208301905092915050565b6000602082019050919050565b600061200e82611fa3565b6120188185611fae565b935061202383611fbf565b8060005b8381101561205457815161203b8882611fde565b975061204683611ff6565b925050600181019050612027565b5085935050505092915050565b6000602082019050818103600083015261207b8184612003565b905092915050565b60008060006060848603121561209c5761209b611db3565b5b60006120aa86828701611f61565b93505060206120bb86828701611f61565b92505060406120cc86828701611dde565b9150509250925092565b600080fd5b600080fd5b600080fd5b60008083601f8401126120fb576120fa6120d6565b5b8235905067ffffffffffffffff811115612118576121176120db565b5b602083019150836001820283011115612134576121336120e0565b5b9250929050565b6000806000806060858703121561215557612154611db3565b5b600061216387828801611dde565b945050602061217487828801611dde565b935050604085013567ffffffffffffffff81111561219557612194611db8565b5b6121a1878288016120e5565b925092505092959194509250565b6121b881611dbd565b82525050565b60006020820190506121d360008301846121af565b92915050565b600080604083850312156121f0576121ef611db3565b5b60006121fe85828601611f61565b925050602061220f85828601611dde565b9150509250929050565b60006020828403121561222f5761222e611db3565b5b600061223d84828501611dde565b91505092915050565b60008083601f84011261225c5761225b6120d6565b5b8235905067ffffffffffffffff811115612279576122786120db565b5b602083019150836001820283011115612295576122946120e0565b5b9250929050565b60008083601f8401126122b2576122b16120d6565b5b8235905067ffffffffffffffff8111156122cf576122ce6120db565b5b6020830191508360208202830111156122eb576122ea6120e0565b5b9250929050565b600080600080600080600080600080600060e08c8e03121561231757612316611db3565b5b60006123258e828f01611dde565b9b505060206123368e828f01611dde565b9a505060408c013567ffffffffffffffff81111561235757612356611db8565b5b6123638e828f01612246565b995099505060608c013567ffffffffffffffff81111561238657612385611db8565b5b6123928e828f01612246565b975097505060808c013567ffffffffffffffff8111156123b5576123b4611db8565b5b6123c18e828f01612246565b955095505060a06123d48e828f01611dde565b93505060c08c013567ffffffffffffffff8111156123f5576123f4611db8565b5b6124018e828f0161229c565b92509250509295989b509295989b9093969950565b6000819050919050565b600061243b61243661243184611eee565b612416565b611eee565b9050919050565b600061244d82612420565b9050919050565b600061245f82612442565b9050919050565b61246f81612454565b82525050565b600060208201905061248a6000830184612466565b92915050565b600060a0820190506124a560008301886121af565b81810360208301526124b78187611e93565b905081810360408301526124cb8186611e93565b905081810360608301526124df8185611e93565b90506124ee60808301846121af565b9695505050505050565b600082825260208201905092915050565b600061251482611e33565b61251e81856124f8565b935061252e818560208601611e4f565b61253781611e82565b840191505092915050565b600082825260208201905092915050565b600061255e82611fa3565b6125688185612542565b935061257383611fbf565b8060005b838110156125a457815161258b8882611fde565b975061259683611ff6565b925050600181019050612577565b5085935050505092915050565b600060c0830160008301516125c96000860182611fcf565b50602083015184820360208601526125e18282612509565b915050604083015184820360408601526125fb8282612509565b915050606083015184820360608601526126158282612509565b915050608083015161262a6080860182611fcf565b5060a083015184820360a08601526126428282612553565b9150508091505092915050565b6000602082019050818103600083015261266981846125b1565b905092915050565b60008115159050919050565b61268681612671565b82525050565b60006020820190506126a1600083018461267d565b92915050565b7f4e487b7100000000000000000000000000000000000000000000000000000000600052604160045260246000fd5b7f4e487b7100000000000000000000000000000000000000000000000000000000600052603260045260246000fd5b7f4e487b7100000000000000000000000000000000000000000000000000000000600052601160045260246000fd5b600061273f82611dbd565b91507fffffffffffffffffffffffffffffffffffffffffffffffffffffffffffffffff82141561277257612771612705565b5b600182019050919050565b60008151905061278c81611dc7565b92915050565b6000602082840312156127a8576127a7611db3565b5b60006127b68482850161277d565b91505092915050565b6000819050919050565b6127da6127d582611dbd565b6127bf565b82525050565b60008160601b9050919050565b60006127f8826127e0565b9050919050565b600061280a826127ed565b9050919050565b61282261281d82611f0e565b6127ff565b82525050565b600061283482866127c9565b60208201915061284482856127c9565b6020820191506128548284612811565b601482019150819050949350505050565b600060608201905061287a6000830186611f20565b6128876020830185611f20565b61289460408301846121af565b949350505050565b7f4552433732313a206f776e657220717565727920666f72206e6f6e657869737460008201527f656e7420746f6b656e0000000000000000000000000000000000000000000000602082015250565b60006128f8602983611e3e565b91506129038261289c565b604082019050919050565b60006020820190508181036000830152612927816128eb565b9050919050565b600061293982611dbd565b9150600082141561294d5761294c612705565b5b600182039050919050565b7f4e487b7100000000000000000000000000000000000000000000000000000000600052602260045260246000fd5b6000600282049050600182168061299f57607f821691505b602082108114156129b3576129b2612958565b5b50919050565b6000819050919050565b6129cc816129b9565b82525050565b600060ff82169050919050565b6129e8816129d2565b82525050565b6000608082019050612a0360008301876129c3565b612a1060208301866129df565b612a1d60408301856129c3565b612a2a60608301846129c3565b9594505050505056fea26469706673582212202e56c0caec375f4ff7e55edee68eaf8ff0ca5975fb3a3cced15fb6d0a1bff51d64736f6c634300080a003360806040523480156200001157600080fd5b50604051620012383803806200123883398181016040528101906200003791906200013b565b80336000806101000a81548173ffffffffffffffffffffffffffffffffffffffff021916908373ffffffffffffffffffffffffffffffffffffffff16021790555080600160006101000a81548173ffffffffffffffffffffffffffffffffffffffff021916908373ffffffffffffffffffffffffffffffffffffffff1602179055505060646004819055506001600581905550506200016d565b600080fd5b600073ffffffffffffffffffffffffffffffffffffffff82169050919050565b60006200010382620000d6565b9050919050565b6200011581620000f6565b81146200012157600080fd5b50565b60008151905062000135816200010a565b92915050565b600060208284031215620001545762000153620000d1565b5b6000620001648482850162000124565b91505092915050565b6110bb806200017d6000396000f3fe6080604052600436106101095760003560e01c80634e6ec247116100955780639cb8a26a116100645780639cb8a26a1461034c578063a9059cbb14610363578063b790a77b146103a0578063dffb4c53146103c9578063f55ecf06146103f457610109565b80634e6ec2471461029057806370a08231146102b95780637c0513db146102f657806395d89b411461032157610109565b806323b872dd116100dc57806323b872dd146101ba57806330e0789e146101f7578063313ce5671461022057806340c10f191461024b57806342fd7d4c1461027457610109565b806306fdde031461010e578063107f424414610139578063119df25f1461016457806318160ddd1461018f575b600080fd5b34801561011a57600080fd5b5061012361041d565b6040516101309190610be4565b60405180910390f35b34801561014557600080fd5b5061014e61045a565b60405161015b9190610c1f565b60405180910390f35b34801561017057600080fd5b50610179610460565b6040516101869190610c7b565b60405180910390f35b34801561019b57600080fd5b506101a4610468565b6040516101b19190610c1f565b60405180910390f35b3480156101c657600080fd5b506101e160048036038101906101dc9190610cf3565b610472565b6040516101ee9190610d61565b60405180910390f35b34801561020357600080fd5b5061021e60048036038101906102199190610cf3565b6104c9565b005b34801561022c57600080fd5b50610235610650565b6040516102429190610d98565b60405180910390f35b34801561025757600080fd5b50610272600480360381019061026d9190610db3565b610659565b005b61028e60048036038101906102899190610df3565b6106c1565b005b34801561029c57600080fd5b506102b760048036038101906102b29190610db3565b6106ee565b005b3480156102c557600080fd5b506102e060048036038101906102db9190610df3565b61082b565b6040516102ed9190610c1f565b60405180910390f35b34801561030257600080fd5b5061030b610874565b6040516103189190610c1f565b60405180910390f35b34801561032d57600080fd5b5061033661087a565b6040516103439190610be4565b60405180910390f35b34801561035857600080fd5b506103616108b7565b005b34801561036f57600080fd5b5061038a60048036038101906103859190610db3565b610948565b6040516103979190610d61565b60405180910390f35b3480156103ac57600080fd5b506103c760048036038101906103c29190610db3565b610966565b005b3480156103d557600080fd5b506103de610abb565b6040516103eb9190610c7b565b60405180910390f35b34801561040057600080fd5b5061041b60048036038101906104169190610e20565b610ae1565b005b60606040518060400160405280600581526020017f546f6b656e000000000000000000000000000000000000000000000000000000815250905090565b60055481565b600033905090565b6000600354905090565b60003373ffffffffffffffffffffffffffffffffffffffff168473ffffffffffffffffffffffffffffffffffffffff16146104ac57600080fd5b6104be6104b7610460565b84846104c9565b600190509392505050565b3373ffffffffffffffffffffffffffffffffffffffff16600160009054906101000a900473ffffffffffffffffffffffffffffffffffffffff1673ffffffffffffffffffffffffffffffffffffffff161461052357600080fd5b600073ffffffffffffffffffffffffffffffffffffffff168373ffffffffffffffffffffffffffffffffffffffff16141561055d57600080fd5b6000600260008573ffffffffffffffffffffffffffffffffffffffff1673ffffffffffffffffffffffffffffffffffffffff168152602001908152602001600020549050818110156105ae57600080fd5b818103600260008673ffffffffffffffffffffffffffffffffffffffff1673ffffffffffffffffffffffffffffffffffffffff1681526020019081526020016000208190555081600260008573ffffffffffffffffffffffffffffffffffffffff1673ffffffffffffffffffffffffffffffffffffffff16815260200190815260200160002060008282546106439190610e8f565b9250508190555050505050565b60006012905090565b3373ffffffffffffffffffffffffffffffffffffffff16600160009054906101000a900473ffffffffffffffffffffffffffffffffffffffff1673ffffffffffffffffffffffffffffffffffffffff16146106b357600080fd5b6106bd82826106ee565b5050565b6000600554346106d19190610f14565b90506106ea82600454836106e59190610f45565b6106ee565b5050565b3373ffffffffffffffffffffffffffffffffffffffff16600160009054906101000a900473ffffffffffffffffffffffffffffffffffffffff1673ffffffffffffffffffffffffffffffffffffffff161461074857600080fd5b600073ffffffffffffffffffffffffffffffffffffffff168273ffffffffffffffffffffffffffffffffffffffff1614156107b8576040517f08c379a00000000000000000000000000000000000000000000000000000000081526004016107af90610feb565b60405180910390fd5b80600360008282546107ca9190610e8f565b9250508190555080600260008473ffffffffffffffffffffffffffffffffffffffff1673ffffffffffffffffffffffffffffffffffffffff16815260200190815260200160002060008282546108209190610e8f565b925050819055505050565b6000600260008373ffffffffffffffffffffffffffffffffffffffff1673ffffffffffffffffffffffffffffffffffffffff168152602001908152602001600020549050919050565b60045481565b60606040518060400160405280600381526020017f544b4e0000000000000000000000000000000000000000000000000000000000815250905090565b60008054906101000a900473ffffffffffffffffffffffffffffffffffffffff1673ffffffffffffffffffffffffffffffffffffffff163373ffffffffffffffffffffffffffffffffffffffff161461090f57600080fd5b60008054906101000a900473ffffffffffffffffffffffffffffffffffffffff1673ffffffffffffffffffffffffffffffffffffffff16ff5b600061095c610955610460565b84846104c9565b6001905092915050565b6000600454826109769190610f14565b90506000600454826109889190610f45565b905060006005548361099a9190610f45565b9050600260003373ffffffffffffffffffffffffffffffffffffffff1673ffffffffffffffffffffffffffffffffffffffff1681526020019081526020016000205482106109e757600080fd5b81600260003373ffffffffffffffffffffffffffffffffffffffff1673ffffffffffffffffffffffffffffffffffffffff1681526020019081526020016000206000828254610a36919061100b565b9250508190555060008573ffffffffffffffffffffffffffffffffffffffff1682604051610a6390611070565b60006040518083038185875af1925050503d8060008114610aa0576040519150601f19603f3d011682016040523d82523d6000602084013e610aa5565b606091505b5050905080610ab357600080fd5b505050505050565b600160009054906101000a900473ffffffffffffffffffffffffffffffffffffffff1681565b60008054906101000a900473ffffffffffffffffffffffffffffffffffffffff1673ffffffffffffffffffffffffffffffffffffffff163373ffffffffffffffffffffffffffffffffffffffff1614610b3957600080fd5b81600481905550806005819055505050565b600081519050919050565b600082825260208201905092915050565b60005b83811015610b85578082015181840152602081019050610b6a565b83811115610b94576000848401525b50505050565b6000601f19601f8301169050919050565b6000610bb682610b4b565b610bc08185610b56565b9350610bd0818560208601610b67565b610bd981610b9a565b840191505092915050565b60006020820190508181036000830152610bfe8184610bab565b905092915050565b6000819050919050565b610c1981610c06565b82525050565b6000602082019050610c346000830184610c10565b92915050565b600073ffffffffffffffffffffffffffffffffffffffff82169050919050565b6000610c6582610c3a565b9050919050565b610c7581610c5a565b82525050565b6000602082019050610c906000830184610c6c565b92915050565b600080fd5b610ca481610c5a565b8114610caf57600080fd5b50565b600081359050610cc181610c9b565b92915050565b610cd081610c06565b8114610cdb57600080fd5b50565b600081359050610ced81610cc7565b92915050565b600080600060608486031215610d0c57610d0b610c96565b5b6000610d1a86828701610cb2565b9350506020610d2b86828701610cb2565b9250506040610d3c86828701610cde565b9150509250925092565b60008115159050919050565b610d5b81610d46565b82525050565b6000602082019050610d766000830184610d52565b92915050565b600060ff82169050919050565b610d9281610d7c565b82525050565b6000602082019050610dad6000830184610d89565b92915050565b60008060408385031215610dca57610dc9610c96565b5b6000610dd885828601610cb2565b9250506020610de985828601610cde565b9150509250929050565b600060208284031215610e0957610e08610c96565b5b6000610e1784828501610cb2565b91505092915050565b60008060408385031215610e3757610e36610c96565b5b6000610e4585828601610cde565b9250506020610e5685828601610cde565b9150509250929050565b7f4e487b7100000000000000000000000000000000000000000000000000000000600052601160045260246000fd5b6000610e9a82610c06565b9150610ea583610c06565b9250827fffffffffffffffffffffffffffffffffffffffffffffffffffffffffffffffff03821115610eda57610ed9610e60565b5b828201905092915050565b7f4e487b7100000000000000000000000000000000000000000000000000000000600052601260045260246000fd5b6000610f1f82610c06565b9150610f2a83610c06565b925082610f3a57610f39610ee5565b5b828204905092915050565b6000610f5082610c06565b9150610f5b83610c06565b9250817fffffffffffffffffffffffffffffffffffffffffffffffffffffffffffffffff0483118215151615610f9457610f93610e60565b5b828202905092915050565b7f45524332303a206d696e7420746f20746865207a65726f206164647265737300600082015250565b6000610fd5601f83610b56565b9150610fe082610f9f565b602082019050919050565b6000602082019050818103600083015261100481610fc8565b9050919050565b600061101682610c06565b915061102183610c06565b92508282101561103457611033610e60565b5b828203905092915050565b600081905092915050565b50565b600061105a60008361103f565b91506110658261104a565b600082019050919050565b600061107b8261104d565b915081905091905056fea2646970667358221220fec84eb7458651dc444fcaa018df67b0c483dd5c50a6f1f21cb74547bf31ca3664736f6c634300080a0033",
  "immutableReferences": {},
  "source": "// SPDX-License-Identifier: MIT\npragma solidity >=0.7.0 <0.9.0;\n\nimport \"./Library.sol\";\nimport \"./Bank.sol\";\n\n/**\n * @title\n * @dev Implements ERC20 in combination with ERC721, and a transaction system between them.\n */\nstruct Product{\n    uint256 salePrice;\n    string title;\n    string image;\n    string description;\n    uint256 size;\n    uint256[] otherInfo;\n}\n\ncontract MarketPlace is ISignable, IPartnerable {\n    // Mapping from token ID to owner address\n    mapping(uint256 => address) public _owners;\n    // Linked List with first, last\n    mapping(uint256 => uint256) public _tokenLinkedList;\n    \n    uint256 public _lastTokenCreated;\n    uint256 public _numberOfTokens;\n\n    mapping (uint256 => Product) public product;\n\n    Bank public bank;\n    \n    constructor (address bankAddr)\n    IPartnerable(address(0))\n    {\n        if (bankAddr == address(0))\n            bank = new Bank(address(this));\n        else\n            bank = Bank(bankAddr);\n    }\n    /*\n    constructor (address owner, TestTokenERC20 partner){\n        ChainOwner = owner;\n        ERC20 = partner;\n    }\n    // */\n    /**\n     * @dev Returns the token collection name.\n     */\n    function name() external pure returns (string memory){\n        return \"Token\";\n    }\n\n    /**\n     * @dev Returns the token collection symbol.\n     */\n    function symbol() external pure returns (string memory){\n        return \"TKN\";\n    }\n    \n    /**\n     * @dev See {IERC721-ownerOf}.\n     */\n    function ownerOf(uint256 tokenId) public view returns (address) {\n        address owner = _owners[tokenId];\n        require(owner != address(0), \"ERC721: owner query for nonexistent token\");\n        return owner;\n    }\n    \n    function tokensOwned(address account) public view returns (uint256[] memory){\n        uint256 iter = _tokenLinkedList[0x00];\n        uint256[] memory result = new uint256[](_numberOfTokens);\n        uint256 count;\n        while (iter != 0x00)\n        {\n            if (_owners[iter] == account)\n            {\n                result[count] = iter;\n                count++;\n            }\n            iter = _tokenLinkedList[iter];\n        }\n        uint256[] memory shrunkResult = new uint256[](count);\n        for (uint256 i = 0; i < count; i++)\n        {\n            shrunkResult[i] = result[i];\n        }\n        return shrunkResult;\n    }\n    \n    function balanceOf(address account) external view returns (uint256){\n        uint256 iter = _tokenLinkedList[0x00];\n        uint256[] memory result = new uint256[](_numberOfTokens);\n        uint256 count;\n        while (iter != 0x00)\n        {\n            if (_owners[iter] == account)\n            {\n                result[count] = iter;\n                count++;\n            }\n            iter = _tokenLinkedList[iter];\n        }\n        \n        return count;\n    }\n    /**\n     * @dev Transfers `tokenId` token from `from` to `to` in ERC721.\n     *\n     * Requirements:\n     *\n     * - `from` cannot be the zero address.\n     * - `to` cannot be the zero address.\n     * - `tokenId` token must exist and be owned by `from`.\n     */\n    function safeTransferFrom(\n        address from,\n        address to,\n        uint256 tokenId\n    ) public\n    {\n        require (from == msg.sender);\n        _transferERC721(from, to, tokenId);\n    }\n    function transferFrom(address from, address to, uint256 tokenId) public {\n        require (from == msg.sender);\n        _transferERC721(from, to, tokenId);\n    }\n    \n    /**\n     * @dev Transfers `tokenId` from `from` to `to`.\n     *  As opposed to {transferFrom}, this imposes no restrictions on msg.sender.\n     *\n     * Requirements:\n     *\n     * - `to` cannot be the zero address.\n     * - `tokenId` token must be owned by `from`.\n     *\n     * Emits a {Transfer} event.\n     */\n    function _transferERC721(\n        address from,\n        address to,\n        uint256 tokenId\n    ) internal {\n        require(ownerOf(tokenId) == from);\n        require(to != address(0));\n        \n        _owners[tokenId] = to;\n        product[tokenId].salePrice = 0;\n    }\n    \n    function _transferERC721Partner(\n        address from,\n        address to,\n        uint256 tokenId\n    ) onlyPartner public {\n        _transferERC721(from, to, tokenId);\n    }\n\n    function mint(address to, uint256 tokenId) onlyOwner public {\n        _mintERC721(to, tokenId);\n    }\n\n    function _mintERC721(address to, uint256 tokenId) internal virtual {\n        require(to != address(0));\n        require(!_exists(tokenId));\n        require(tokenId != 0x00);\n\n        _owners[tokenId] = to;\n        _tokenLinkedList[_lastTokenCreated] = tokenId;\n        _lastTokenCreated = tokenId;\n        _numberOfTokens++;\n        //require(_tokenLinkedList[_lastTokenCreated] == 0x00, \"ERC721: unknown error - linked list loop.\");\n    }\n    \n    function _exists(uint256 tokenId) public view returns (bool) {\n        return _owners[tokenId] != address(0);\n    }\n    \n    /**\n     * @dev See {IERC721Metadata-tokenURI}.\n     */\n    function getProduct(uint256 tokenId) public view returns (Product memory) {\n        require(_exists(tokenId));\n\n        Product memory _tokenURI = product[tokenId];\n\n        return _tokenURI;\n    }\n\n    /**\n     * @dev Sets `_tokenURI` as the tokenURI of `tokenId`.\n     *\n     * Requirements:\n     *\n     * - `tokenId` must exist.\n     */\n    function setProductInfo(\n        uint256 tokenId,\n        uint256 salePrice,\n        string calldata title,\n        string calldata image,\n        string calldata description,\n        uint256 size,\n        uint256[] calldata otherInfo) public {\n        address owner = ownerOf(tokenId);\n        require(owner != address(0));\n        require(msg.sender == owner || msg.sender == ChainOwner);\n        product[tokenId].salePrice = salePrice;\n        product[tokenId].title = title;\n        product[tokenId].image = image;\n        product[tokenId].description = description;\n        product[tokenId].size = size;\n        product[tokenId].otherInfo = otherInfo;\n    }\n    /**\n    function _approve(\n        address,\n        address,\n        uint256\n    ) internal pure {\n        _dontDoThis();\n    }\n    \n    function _dontDoThis() private pure {\n        revert(\"CHZ: Not supported.\");\n    }\n    //*/\n    /**\n     * The token is put on the market at the sale price.\n     * Requirements:\n     *  The sender of this message owns the token to be put on sale.\n     */\n    function setSalePrice(uint256 tokenId, uint256 price) public {\n        require(msg.sender == ownerOf(tokenId));\n        product[tokenId].salePrice = price;\n    }\n    \n    function cancelSale(uint256 tokenId) public {\n        setSalePrice(tokenId, 0);\n    }\n    \n    function buy(uint256 tokenId) public payable {\n        if (msg.value > 0) \n            BuyCurrency();\n        uint256 buyPrice = product[tokenId].salePrice;\n        require(buyPrice != 0);\n        address seller = ownerOf(tokenId);\n        address buyer = msg.sender;\n        bank._transfer(buyer, seller, buyPrice);\n        _transferERC721(seller, buyer, tokenId);\n    }\n    \n    function buyWithBudget(uint256 tokenId, uint256 budget) public payable {\n        if (msg.value > 0) \n            BuyCurrency();\n        require (budget >= product[tokenId].salePrice);\n        buy(tokenId);\n    }\n    \n    function getSalePrice(uint256 tokenId) public view returns (uint256){\n        uint256 buyPrice = product[tokenId].salePrice;\n        require(buyPrice != 0);\n        return buyPrice;\n    }\n\n    function browseMarketItems(uint256 indexFirst, uint256 amount) public view returns (uint256[] memory) {\n        uint256 iter = _tokenLinkedList[0x00];\n        uint256[] memory result = new uint256[](amount);\n        uint256 count;\n        while (iter != 0x00 && count < amount)\n        {\n            uint256 _salePrice = product[iter].salePrice;\n            if (_salePrice != 0)\n            {\n                if (indexFirst > 0) {\n                    indexFirst--;\n                } else {\n                    result[count] = iter;\n                    count++;\n                }\n            }\n            iter = _tokenLinkedList[iter];\n        }\n        return result;\n    }\n    \n    /**\n     * The message sender buys the tokenID with the sellPrice using an external Coupon.\n     * The coupon is overridden by the sale price on this contract.\n     * Requirements:\n     *  The token exists.\n     *  The buyer have enough money buy.\n     *  The item is not on sale currently.\n     *  The Coupon is real.\n     */\n    function buyWithCoupon(uint256 tokenId, uint256 sellPrice, bytes calldata signature) public {\n        address seller = _owners[tokenId];\n        address buyer = _msgSender();\n        require (_exists(tokenId));\n        require (bank.balanceOf(buyer) >= sellPrice);\n        require (getSalePrice(tokenId) == 0);\n        \n        bytes32 message = keccak256(abi.encodePacked(tokenId, sellPrice, seller));\n        require (recoverSigner(message, signature) == seller);\n        \n        bank._transfer(buyer, seller, sellPrice);\n        _transferERC721(seller, buyer, tokenId);\n    }\n\n    function BuyCurrency() public payable{\n        bank._buy{value:msg.value}(msg.sender);\n    }\n}",
  "sourcePath": "/home/gondar/Documents/mobie-app/backend/contract/contracts/MarketPlace.sol",
  "compiler": {
    "name": "solc",
    "version": "0.8.10+commit.fc410830.Emscripten.clang"
  },
  "schemaVersion": "3.4.3",
  "updatedAt": "2021-12-27T05:11:57.930Z",
  "networkType": "ethereum",
  "devdoc": {
    "kind": "dev",
    "methods": {
      "getProduct(uint256)": {
        "details": "See {IERC721Metadata-tokenURI}."
      },
      "name()": {
        "details": "Returns the token collection name."
      },
      "ownerOf(uint256)": {
        "details": "See {IERC721-ownerOf}."
      },
      "safeTransferFrom(address,address,uint256)": {
        "details": "Transfers `tokenId` token from `from` to `to` in ERC721. Requirements: - `from` cannot be the zero address. - `to` cannot be the zero address. - `tokenId` token must exist and be owned by `from`."
      },
      "setProductInfo(uint256,uint256,string,string,string,uint256,uint256[])": {
        "details": "Sets `_tokenURI` as the tokenURI of `tokenId`. Requirements: - `tokenId` must exist."
      },
      "symbol()": {
        "details": "Returns the token collection symbol."
      }
    },
    "version": 1
  },
  "userdoc": {
    "kind": "user",
    "methods": {
      "buyWithCoupon(uint256,uint256,bytes)": {
        "notice": "The message sender buys the tokenID with the sellPrice using an external Coupon. The coupon is overridden by the sale price on this contract. Requirements:  The token exists.  The buyer have enough money buy.  The item is not on sale currently.  The Coupon is real."
      },
      "setSalePrice(uint256,uint256)": {
        "notice": "The token is put on the market at the sale price. Requirements:  The sender of this message owns the token to be put on sale."
      }
    },
    "version": 1
  }
}