{
  "contractName": "Shop",
  "abi": [
    {
      "inputs": [],
      "stateMutability": "nonpayable",
      "type": "constructor"
    },
    {
      "inputs": [],
      "name": "balance",
      "outputs": [
        {
          "internalType": "uint256",
          "name": "",
          "type": "uint256"
        }
      ],
      "stateMutability": "view",
      "type": "function",
      "constant": true
    },
    {
      "inputs": [
        {
          "internalType": "string",
          "name": "",
          "type": "string"
        }
      ],
      "name": "bankAccounts",
      "outputs": [
        {
          "internalType": "string",
          "name": "accountNumber",
          "type": "string"
        },
        {
          "internalType": "string",
          "name": "ownerPhoneNumber",
          "type": "string"
        },
        {
          "internalType": "uint256",
          "name": "balance",
          "type": "uint256"
        },
        {
          "internalType": "address",
          "name": "accountAddress",
          "type": "address"
        }
      ],
      "stateMutability": "view",
      "type": "function",
      "constant": true
    },
    {
      "inputs": [
        {
          "internalType": "uint256",
          "name": "",
          "type": "uint256"
        }
      ],
      "name": "orderToOwner",
      "outputs": [
        {
          "internalType": "uint256",
          "name": "",
          "type": "uint256"
        }
      ],
      "stateMutability": "view",
      "type": "function",
      "constant": true
    },
    {
      "inputs": [
        {
          "internalType": "uint256",
          "name": "",
          "type": "uint256"
        }
      ],
      "name": "orders",
      "outputs": [
        {
          "internalType": "uint256",
          "name": "totalPrice",
          "type": "uint256"
        },
        {
          "internalType": "string",
          "name": "orderAddress",
          "type": "string"
        },
        {
          "internalType": "string",
          "name": "details",
          "type": "string"
        },
        {
          "internalType": "string",
          "name": "name",
          "type": "string"
        },
        {
          "internalType": "string",
          "name": "phone",
          "type": "string"
        },
        {
          "internalType": "uint256",
          "name": "timeStamp",
          "type": "uint256"
        }
      ],
      "stateMutability": "view",
      "type": "function",
      "constant": true
    },
    {
      "inputs": [],
      "name": "owner",
      "outputs": [
        {
          "internalType": "address",
          "name": "",
          "type": "address"
        }
      ],
      "stateMutability": "view",
      "type": "function",
      "constant": true
    },
    {
      "inputs": [
        {
          "internalType": "uint256",
          "name": "",
          "type": "uint256"
        }
      ],
      "name": "products",
      "outputs": [
        {
          "internalType": "uint256",
          "name": "id",
          "type": "uint256"
        },
        {
          "internalType": "string",
          "name": "title",
          "type": "string"
        },
        {
          "internalType": "uint256",
          "name": "price",
          "type": "uint256"
        },
        {
          "internalType": "uint256",
          "name": "size",
          "type": "uint256"
        },
        {
          "internalType": "string",
          "name": "description",
          "type": "string"
        },
        {
          "internalType": "string",
          "name": "image",
          "type": "string"
        },
        {
          "internalType": "string",
          "name": "color",
          "type": "string"
        },
        {
          "internalType": "string",
          "name": "prodcutAddress",
          "type": "string"
        },
        {
          "internalType": "uint256",
          "name": "timeStamp",
          "type": "uint256"
        }
      ],
      "stateMutability": "view",
      "type": "function",
      "constant": true
    },
    {
      "inputs": [
        {
          "internalType": "string",
          "name": "",
          "type": "string"
        }
      ],
      "name": "transactions",
      "outputs": [
        {
          "internalType": "string",
          "name": "code",
          "type": "string"
        },
        {
          "internalType": "string",
          "name": "fromAccountNumber",
          "type": "string"
        },
        {
          "internalType": "string",
          "name": "toAccountNumber",
          "type": "string"
        },
        {
          "internalType": "uint256",
          "name": "amount",
          "type": "uint256"
        },
        {
          "internalType": "uint256",
          "name": "fee",
          "type": "uint256"
        },
        {
          "internalType": "uint256",
          "name": "timeStamp",
          "type": "uint256"
        }
      ],
      "stateMutability": "view",
      "type": "function",
      "constant": true
    },
    {
      "inputs": [
        {
          "internalType": "uint256",
          "name": "",
          "type": "uint256"
        }
      ],
      "name": "users",
      "outputs": [
        {
          "internalType": "uint256",
          "name": "id",
          "type": "uint256"
        },
        {
          "internalType": "string",
          "name": "name",
          "type": "string"
        },
        {
          "internalType": "string",
          "name": "phone",
          "type": "string"
        },
        {
          "internalType": "string",
          "name": "email",
          "type": "string"
        },
        {
          "internalType": "uint256",
          "name": "timeStamp",
          "type": "uint256"
        }
      ],
      "stateMutability": "view",
      "type": "function",
      "constant": true
    },
    {
      "inputs": [
        {
          "internalType": "uint256",
          "name": "_id",
          "type": "uint256"
        },
        {
          "internalType": "string",
          "name": "_name",
          "type": "string"
        },
        {
          "internalType": "string",
          "name": "_phone",
          "type": "string"
        },
        {
          "internalType": "string",
          "name": "_email",
          "type": "string"
        },
        {
          "internalType": "uint256",
          "name": "_timeStamp",
          "type": "uint256"
        }
      ],
      "name": "createUser",
      "outputs": [],
      "stateMutability": "nonpayable",
      "type": "function"
    },
    {
      "inputs": [
        {
          "internalType": "uint256",
          "name": "_id",
          "type": "uint256"
        }
      ],
      "name": "getUser",
      "outputs": [
        {
          "components": [
            {
              "internalType": "uint256",
              "name": "id",
              "type": "uint256"
            },
            {
              "internalType": "string",
              "name": "name",
              "type": "string"
            },
            {
              "internalType": "string",
              "name": "phone",
              "type": "string"
            },
            {
              "internalType": "string",
              "name": "email",
              "type": "string"
            },
            {
              "internalType": "uint256",
              "name": "timeStamp",
              "type": "uint256"
            }
          ],
          "internalType": "struct Shop.User",
          "name": "",
          "type": "tuple"
        }
      ],
      "stateMutability": "view",
      "type": "function",
      "constant": true
    },
    {
      "inputs": [
        {
          "internalType": "uint256",
          "name": "_id",
          "type": "uint256"
        },
        {
          "internalType": "string",
          "name": "_title",
          "type": "string"
        },
        {
          "internalType": "uint256",
          "name": "_price",
          "type": "uint256"
        },
        {
          "internalType": "uint256",
          "name": "_size",
          "type": "uint256"
        },
        {
          "internalType": "string",
          "name": "_description",
          "type": "string"
        },
        {
          "internalType": "string",
          "name": "_image",
          "type": "string"
        },
        {
          "internalType": "string",
          "name": "_color",
          "type": "string"
        },
        {
          "internalType": "string",
          "name": "_prodcutAddress",
          "type": "string"
        },
        {
          "internalType": "uint256",
          "name": "_timeStamp",
          "type": "uint256"
        }
      ],
      "name": "createProduct",
      "outputs": [],
      "stateMutability": "nonpayable",
      "type": "function"
    },
    {
      "inputs": [
        {
          "internalType": "uint256",
          "name": "_id",
          "type": "uint256"
        }
      ],
      "name": "getProduct",
      "outputs": [
        {
          "components": [
            {
              "internalType": "uint256",
              "name": "id",
              "type": "uint256"
            },
            {
              "internalType": "string",
              "name": "title",
              "type": "string"
            },
            {
              "internalType": "uint256",
              "name": "price",
              "type": "uint256"
            },
            {
              "internalType": "uint256",
              "name": "size",
              "type": "uint256"
            },
            {
              "internalType": "string",
              "name": "description",
              "type": "string"
            },
            {
              "internalType": "string",
              "name": "image",
              "type": "string"
            },
            {
              "internalType": "string",
              "name": "color",
              "type": "string"
            },
            {
              "internalType": "string",
              "name": "prodcutAddress",
              "type": "string"
            },
            {
              "internalType": "uint256",
              "name": "timeStamp",
              "type": "uint256"
            }
          ],
          "internalType": "struct Shop.Product",
          "name": "",
          "type": "tuple"
        }
      ],
      "stateMutability": "view",
      "type": "function",
      "constant": true
    },
    {
      "inputs": [
        {
          "internalType": "uint256",
          "name": "_id",
          "type": "uint256"
        },
        {
          "internalType": "uint256",
          "name": "_userId",
          "type": "uint256"
        },
        {
          "internalType": "uint256",
          "name": "_totalPrice",
          "type": "uint256"
        },
        {
          "internalType": "string",
          "name": "_orderAddress",
          "type": "string"
        },
        {
          "internalType": "string",
          "name": "_details",
          "type": "string"
        },
        {
          "internalType": "string",
          "name": "_name",
          "type": "string"
        },
        {
          "internalType": "string",
          "name": "_phone",
          "type": "string"
        },
        {
          "internalType": "uint256",
          "name": "_timeStamp",
          "type": "uint256"
        }
      ],
      "name": "addOrder",
      "outputs": [],
      "stateMutability": "nonpayable",
      "type": "function"
    },
    {
      "inputs": [
        {
          "internalType": "uint256",
          "name": "_id",
          "type": "uint256"
        }
      ],
      "name": "getOrder",
      "outputs": [
        {
          "components": [
            {
              "internalType": "uint256",
              "name": "totalPrice",
              "type": "uint256"
            },
            {
              "internalType": "string",
              "name": "orderAddress",
              "type": "string"
            },
            {
              "internalType": "string",
              "name": "details",
              "type": "string"
            },
            {
              "internalType": "string",
              "name": "name",
              "type": "string"
            },
            {
              "internalType": "string",
              "name": "phone",
              "type": "string"
            },
            {
              "internalType": "uint256",
              "name": "timeStamp",
              "type": "uint256"
            }
          ],
          "internalType": "struct Shop.Order",
          "name": "",
          "type": "tuple"
        }
      ],
      "stateMutability": "view",
      "type": "function",
      "constant": true
    },
    {
      "inputs": [
        {
          "internalType": "uint256",
          "name": "amount",
          "type": "uint256"
        }
      ],
      "name": "addBalance",
      "outputs": [],
      "stateMutability": "nonpayable",
      "type": "function"
    },
    {
      "inputs": [
        {
          "internalType": "string",
          "name": "code",
          "type": "string"
        },
        {
          "internalType": "string",
          "name": "accountNumber",
          "type": "string"
        },
        {
          "internalType": "uint256",
          "name": "amount",
          "type": "uint256"
        },
        {
          "internalType": "uint256",
          "name": "timeStamp",
          "type": "uint256"
        }
      ],
      "name": "addAccountBalance",
      "outputs": [],
      "stateMutability": "nonpayable",
      "type": "function"
    },
    {
      "inputs": [
        {
          "internalType": "string",
          "name": "accountNumber",
          "type": "string"
        },
        {
          "internalType": "address",
          "name": "newAddress",
          "type": "address"
        }
      ],
      "name": "changeAddressOfAccount",
      "outputs": [],
      "stateMutability": "nonpayable",
      "type": "function"
    },
    {
      "inputs": [
        {
          "internalType": "string",
          "name": "accountNumber",
          "type": "string"
        },
        {
          "internalType": "string",
          "name": "ownerPhoneNumber",
          "type": "string"
        },
        {
          "internalType": "address",
          "name": "accountAddress",
          "type": "address"
        }
      ],
      "name": "createAccount",
      "outputs": [],
      "stateMutability": "nonpayable",
      "type": "function"
    },
    {
      "inputs": [
        {
          "internalType": "string",
          "name": "code",
          "type": "string"
        },
        {
          "internalType": "string",
          "name": "fromAccount",
          "type": "string"
        },
        {
          "internalType": "string",
          "name": "toAccount",
          "type": "string"
        },
        {
          "internalType": "uint256",
          "name": "fee",
          "type": "uint256"
        },
        {
          "internalType": "uint256",
          "name": "amount",
          "type": "uint256"
        },
        {
          "internalType": "uint256",
          "name": "timeStamp",
          "type": "uint256"
        }
      ],
      "name": "transfer",
      "outputs": [],
      "stateMutability": "nonpayable",
      "type": "function"
    }
  ],
  "bytecode": "0x608060405234801561001057600080fd5b50336000806101000a81548173ffffffffffffffffffffffffffffffffffffffff021916908373ffffffffffffffffffffffffffffffffffffffff16021790555061353f806100606000396000f3fe608060405234801561001057600080fd5b50600436106101215760003560e01c80637acc0b20116100ad578063b69ef8a811610071578063b69ef8a814610355578063b9db15b414610373578063d09ef241146103a3578063d5e1594f146103d3578063d91921ed146103ef57610121565b80637acc0b201461027e5780638da5cb5b146102b65780639d8b35d4146102d4578063a85c38ef146102f0578063b0467deb1461032557610121565b806341bc3628116100f457806341bc3628146101c757806341d3d0ab146101e357806347bccce0146101ff5780634d36058e146102325780637626a8a61461024e57610121565b8063022236f414610126578063156ba8571461015b5780632caca3c714610177578063365b98b214610193575b600080fd5b610140600480360381019061013b919061262e565b61040b565b60405161015296959493929190612718565b60405180910390f35b610175600480360381019061017091906127ba565b6105f5565b005b610191600480360381019061018c9190612910565b610768565b005b6101ad60048036038101906101a89190612a36565b6108ad565b6040516101be959493929190612a63565b60405180910390f35b6101e160048036038101906101dc9190612b29565b610a7b565b005b6101fd60048036038101906101f89190612b85565b610bbc565b005b6102196004803603810190610214919061262e565b610d04565b6040516102299493929190612c1f565b60405180910390f35b61024c60048036038101906102479190612c72565b610e7a565b005b61026860048036038101906102639190612a36565b611092565b6040516102759190612d11565b60405180910390f35b61029860048036038101906102939190612a36565b6110aa565b6040516102ad99989796959493929190612d2c565b60405180910390f35b6102be6113a0565b6040516102cb9190612ddc565b60405180910390f35b6102ee60048036038101906102e99190612df7565b6113c4565b005b61030a60048036038101906103059190612a36565b6114cb565b60405161031c96959493929190612ec6565b60405180910390f35b61033f600480360381019061033a9190612a36565b611727565b60405161034c9190613020565b60405180910390f35b61035d611976565b60405161036a9190612d11565b60405180910390f35b61038d60048036038101906103889190612a36565b61197c565b60405161039a9190613123565b60405180910390f35b6103bd60048036038101906103b89190612a36565b611d04565b6040516103ca91906131e3565b60405180910390f35b6103ed60048036038101906103e89190613205565b611fe5565b005b61040960048036038101906104049190612a36565b61230c565b005b60038180516020810182018051848252602083016020850120818352809550505050505060009150905080600001805461044490613315565b80601f016020809104026020016040519081016040528092919081815260200182805461047090613315565b80156104bd5780601f10610492576101008083540402835291602001916104bd565b820191906000526020600020905b8154815290600101906020018083116104a057829003601f168201915b5050505050908060010180546104d290613315565b80601f01602080910402602001604051908101604052809291908181526020018280546104fe90613315565b801561054b5780601f106105205761010080835404028352916020019161054b565b820191906000526020600020905b81548152906001019060200180831161052e57829003601f168201915b50505050509080600201805461056090613315565b80601f016020809104026020016040519081016040528092919081815260200182805461058c90613315565b80156105d95780601f106105ae576101008083540402835291602001916105d9565b820191906000526020600020905b8154815290600101906020018083116105bc57829003601f168201915b5050505050908060030154908060040154908060050154905086565b60008054906101000a900473ffffffffffffffffffffffffffffffffffffffff1673ffffffffffffffffffffffffffffffffffffffff163373ffffffffffffffffffffffffffffffffffffffff161461064d57600080fd5b6040518061012001604052808a815260200189815260200188815260200187815260200186815260200185815260200184815260200183815260200182815250600660008b81526020019081526020016000206000820151816000015560208201518160010190805190602001906106c6929190612380565b50604082015181600201556060820151816003015560808201518160040190805190602001906106f7929190612380565b5060a0820151816005019080519060200190610714929190612380565b5060c0820151816006019080519060200190610731929190612380565b5060e082015181600701908051906020019061074e929190612380565b506101008201518160080155905050505050505050505050565b60008054906101000a900473ffffffffffffffffffffffffffffffffffffffff1673ffffffffffffffffffffffffffffffffffffffff163373ffffffffffffffffffffffffffffffffffffffff16146107c057600080fd5b6040518060c0016040528087815260200186815260200185815260200184815260200183815260200182815250600460008a8152602001908152602001600020600082015181600001556020820151816001019080519060200190610826929190612380565b506040820151816002019080519060200190610843929190612380565b506060820151816003019080519060200190610860929190612380565b50608082015181600401908051906020019061087d929190612380565b5060a0820151816005015590505086600560008a8152602001908152602001600020819055505050505050505050565b60076020528060005260406000206000915090508060000154908060010180546108d690613315565b80601f016020809104026020016040519081016040528092919081815260200182805461090290613315565b801561094f5780601f106109245761010080835404028352916020019161094f565b820191906000526020600020905b81548152906001019060200180831161093257829003601f168201915b50505050509080600201805461096490613315565b80601f016020809104026020016040519081016040528092919081815260200182805461099090613315565b80156109dd5780601f106109b2576101008083540402835291602001916109dd565b820191906000526020600020905b8154815290600101906020018083116109c057829003601f168201915b5050505050908060030180546109f290613315565b80601f0160208091040260200160405190810160405280929190818152602001828054610a1e90613315565b8015610a6b5780601f10610a4057610100808354040283529160200191610a6b565b820191906000526020600020905b815481529060010190602001808311610a4e57829003601f168201915b5050505050908060040154905085565b60008054906101000a900473ffffffffffffffffffffffffffffffffffffffff1673ffffffffffffffffffffffffffffffffffffffff163373ffffffffffffffffffffffffffffffffffffffff1614610ad357600080fd5b8160006040518060400160405280600c81526020017f303030303030303030303030000000000000000000000000000000000000000081525090508180519060200120600283604051610b269190613383565b9081526020016040518091039020600001604051610b449190613439565b604051809103902014610b5657600080fd5b82600285604051610b679190613383565b908152602001604051809103902060030160006101000a81548173ffffffffffffffffffffffffffffffffffffffff021916908373ffffffffffffffffffffffffffffffffffffffff16021790555050505050565b8260006040518060200160405280600081525090508080519060200120600283604051610be99190613383565b9081526020016040518091039020600001604051610c079190613439565b604051809103902014610c1957600080fd5b6040518060800160405280868152602001858152602001600081526020018473ffffffffffffffffffffffffffffffffffffffff16815250600286604051610c619190613383565b90815260200160405180910390206000820151816000019080519060200190610c8b929190612380565b506020820151816001019080519060200190610ca8929190612380565b506040820151816002015560608201518160030160006101000a81548173ffffffffffffffffffffffffffffffffffffffff021916908373ffffffffffffffffffffffffffffffffffffffff1602179055509050505050505050565b600281805160208101820180518482526020830160208501208183528095505050505050600091509050806000018054610d3d90613315565b80601f0160208091040260200160405190810160405280929190818152602001828054610d6990613315565b8015610db65780601f10610d8b57610100808354040283529160200191610db6565b820191906000526020600020905b815481529060010190602001808311610d9957829003601f168201915b505050505090806001018054610dcb90613315565b80601f0160208091040260200160405190810160405280929190818152602001828054610df790613315565b8015610e445780601f10610e1957610100808354040283529160200191610e44565b820191906000526020600020905b815481529060010190602001808311610e2757829003601f168201915b5050505050908060020154908060030160009054906101000a900473ffffffffffffffffffffffffffffffffffffffff16905084565b60008054906101000a900473ffffffffffffffffffffffffffffffffffffffff1673ffffffffffffffffffffffffffffffffffffffff163373ffffffffffffffffffffffffffffffffffffffff1614610ed257600080fd5b81806001541015610ee257600080fd5b8460006040518060200160405280600081525090508080519060200120600383604051610f0f9190613383565b9081526020016040518091039020600001604051610f2d9190613439565b604051809103902014610f3f57600080fd5b8460016000828254610f51919061347f565b9250508190555084600287604051610f699190613383565b90815260200160405180910390206002016000828254610f8991906134b3565b925050819055506040518060c001604052808881526020016040518060400160405280600c81526020017f3030303030303030303030300000000000000000000000000000000000000000815250815260200187815260200186815260200160008152602001858152506003886040516110039190613383565b9081526020016040518091039020600082015181600001908051906020019061102d929190612380565b50602082015181600101908051906020019061104a929190612380565b506040820151816002019080519060200190611067929190612380565b50606082015181600301556080820151816004015560a0820151816005015590505050505050505050565b60056020528060005260406000206000915090505481565b60066020528060005260406000206000915090508060000154908060010180546110d390613315565b80601f01602080910402602001604051908101604052809291908181526020018280546110ff90613315565b801561114c5780601f106111215761010080835404028352916020019161114c565b820191906000526020600020905b81548152906001019060200180831161112f57829003601f168201915b50505050509080600201549080600301549080600401805461116d90613315565b80601f016020809104026020016040519081016040528092919081815260200182805461119990613315565b80156111e65780601f106111bb576101008083540402835291602001916111e6565b820191906000526020600020905b8154815290600101906020018083116111c957829003601f168201915b5050505050908060050180546111fb90613315565b80601f016020809104026020016040519081016040528092919081815260200182805461122790613315565b80156112745780601f1061124957610100808354040283529160200191611274565b820191906000526020600020905b81548152906001019060200180831161125757829003601f168201915b50505050509080600601805461128990613315565b80601f01602080910402602001604051908101604052809291908181526020018280546112b590613315565b80156113025780601f106112d757610100808354040283529160200191611302565b820191906000526020600020905b8154815290600101906020018083116112e557829003601f168201915b50505050509080600701805461131790613315565b80601f016020809104026020016040519081016040528092919081815260200182805461134390613315565b80156113905780601f1061136557610100808354040283529160200191611390565b820191906000526020600020905b81548152906001019060200180831161137357829003601f168201915b5050505050908060080154905089565b60008054906101000a900473ffffffffffffffffffffffffffffffffffffffff1681565b60008054906101000a900473ffffffffffffffffffffffffffffffffffffffff1673ffffffffffffffffffffffffffffffffffffffff163373ffffffffffffffffffffffffffffffffffffffff161461141c57600080fd5b6040518060a00160405280868152602001858152602001848152602001838152602001828152506007600087815260200190815260200160002060008201518160000155602082015181600101908051906020019061147c929190612380565b506040820151816002019080519060200190611499929190612380565b5060608201518160030190805190602001906114b6929190612380565b50608082015181600401559050505050505050565b60046020528060005260406000206000915090508060000154908060010180546114f490613315565b80601f016020809104026020016040519081016040528092919081815260200182805461152090613315565b801561156d5780601f106115425761010080835404028352916020019161156d565b820191906000526020600020905b81548152906001019060200180831161155057829003601f168201915b50505050509080600201805461158290613315565b80601f01602080910402602001604051908101604052809291908181526020018280546115ae90613315565b80156115fb5780601f106115d0576101008083540402835291602001916115fb565b820191906000526020600020905b8154815290600101906020018083116115de57829003601f168201915b50505050509080600301805461161090613315565b80601f016020809104026020016040519081016040528092919081815260200182805461163c90613315565b80156116895780601f1061165e57610100808354040283529160200191611689565b820191906000526020600020905b81548152906001019060200180831161166c57829003601f168201915b50505050509080600401805461169e90613315565b80601f01602080910402602001604051908101604052809291908181526020018280546116ca90613315565b80156117175780601f106116ec57610100808354040283529160200191611717565b820191906000526020600020905b8154815290600101906020018083116116fa57829003601f168201915b5050505050908060050154905086565b61172f612406565b60008054906101000a900473ffffffffffffffffffffffffffffffffffffffff1673ffffffffffffffffffffffffffffffffffffffff163373ffffffffffffffffffffffffffffffffffffffff161461178757600080fd5b600760008381526020019081526020016000206040518060a0016040529081600082015481526020016001820180546117bf90613315565b80601f01602080910402602001604051908101604052809291908181526020018280546117eb90613315565b80156118385780601f1061180d57610100808354040283529160200191611838565b820191906000526020600020905b81548152906001019060200180831161181b57829003601f168201915b5050505050815260200160028201805461185190613315565b80601f016020809104026020016040519081016040528092919081815260200182805461187d90613315565b80156118ca5780601f1061189f576101008083540402835291602001916118ca565b820191906000526020600020905b8154815290600101906020018083116118ad57829003601f168201915b505050505081526020016003820180546118e390613315565b80601f016020809104026020016040519081016040528092919081815260200182805461190f90613315565b801561195c5780601f106119315761010080835404028352916020019161195c565b820191906000526020600020905b81548152906001019060200180831161193f57829003601f168201915b505050505081526020016004820154815250509050919050565b60015481565b611984612435565b60008054906101000a900473ffffffffffffffffffffffffffffffffffffffff1673ffffffffffffffffffffffffffffffffffffffff163373ffffffffffffffffffffffffffffffffffffffff16146119dc57600080fd5b600660008381526020019081526020016000206040518061012001604052908160008201548152602001600182018054611a1590613315565b80601f0160208091040260200160405190810160405280929190818152602001828054611a4190613315565b8015611a8e5780601f10611a6357610100808354040283529160200191611a8e565b820191906000526020600020905b815481529060010190602001808311611a7157829003601f168201915b505050505081526020016002820154815260200160038201548152602001600482018054611abb90613315565b80601f0160208091040260200160405190810160405280929190818152602001828054611ae790613315565b8015611b345780601f10611b0957610100808354040283529160200191611b34565b820191906000526020600020905b815481529060010190602001808311611b1757829003601f168201915b50505050508152602001600582018054611b4d90613315565b80601f0160208091040260200160405190810160405280929190818152602001828054611b7990613315565b8015611bc65780601f10611b9b57610100808354040283529160200191611bc6565b820191906000526020600020905b815481529060010190602001808311611ba957829003601f168201915b50505050508152602001600682018054611bdf90613315565b80601f0160208091040260200160405190810160405280929190818152602001828054611c0b90613315565b8015611c585780601f10611c2d57610100808354040283529160200191611c58565b820191906000526020600020905b815481529060010190602001808311611c3b57829003601f168201915b50505050508152602001600782018054611c7190613315565b80601f0160208091040260200160405190810160405280929190818152602001828054611c9d90613315565b8015611cea5780601f10611cbf57610100808354040283529160200191611cea565b820191906000526020600020905b815481529060010190602001808311611ccd57829003601f168201915b505050505081526020016008820154815250509050919050565b611d0c612481565b60008054906101000a900473ffffffffffffffffffffffffffffffffffffffff1673ffffffffffffffffffffffffffffffffffffffff163373ffffffffffffffffffffffffffffffffffffffff1614611d6457600080fd5b600460008381526020019081526020016000206040518060c001604052908160008201548152602001600182018054611d9c90613315565b80601f0160208091040260200160405190810160405280929190818152602001828054611dc890613315565b8015611e155780601f10611dea57610100808354040283529160200191611e15565b820191906000526020600020905b815481529060010190602001808311611df857829003601f168201915b50505050508152602001600282018054611e2e90613315565b80601f0160208091040260200160405190810160405280929190818152602001828054611e5a90613315565b8015611ea75780601f10611e7c57610100808354040283529160200191611ea7565b820191906000526020600020905b815481529060010190602001808311611e8a57829003601f168201915b50505050508152602001600382018054611ec090613315565b80601f0160208091040260200160405190810160405280929190818152602001828054611eec90613315565b8015611f395780601f10611f0e57610100808354040283529160200191611f39565b820191906000526020600020905b815481529060010190602001808311611f1c57829003601f168201915b50505050508152602001600482018054611f5290613315565b80601f0160208091040260200160405190810160405280929190818152602001828054611f7e90613315565b8015611fcb5780601f10611fa057610100808354040283529160200191611fcb565b820191906000526020600020905b815481529060010190602001808311611fae57829003601f168201915b505050505081526020016005820154815250509050919050565b8482843373ffffffffffffffffffffffffffffffffffffffff1660028460405161200f9190613383565b908152602001604051809103902060030160009054906101000a900473ffffffffffffffffffffffffffffffffffffffff1673ffffffffffffffffffffffffffffffffffffffff161480156120905750808261206b91906134b3565b60028460405161207b9190613383565b90815260200160405180910390206002015410155b61209957600080fd5b8660006040518060400160405280600c81526020017f3030303030303030303030300000000000000000000000000000000000000000815250905081805190602001206002836040516120ec9190613383565b908152602001604051809103902060000160405161210a9190613439565b60405180910390201461211c57600080fd5b8a600060405180602001604052806000815250905080805190602001206003836040516121499190613383565b90815260200160405180910390206000016040516121679190613439565b60405180910390201461217957600080fd5b8860028d60405161218a9190613383565b908152602001604051809103902060020160008282546121aa919061347f565b925050819055508860028c6040516121c29190613383565b908152602001604051809103902060020160008282546121e291906134b3565b925050819055508960028d6040516121fa9190613383565b9081526020016040518091039020600201600082825461221a919061347f565b92505081905550896001600082825461223391906134b3565b925050819055506040518060c001604052808e81526020018d81526020018c81526020018a81526020018b81526020018981525060038e6040516122779190613383565b908152602001604051809103902060008201518160000190805190602001906122a1929190612380565b5060208201518160010190805190602001906122be929190612380565b5060408201518160020190805190602001906122db929190612380565b50606082015181600301556080820151816004015560a0820151816005015590505050505050505050505050505050565b60008054906101000a900473ffffffffffffffffffffffffffffffffffffffff1673ffffffffffffffffffffffffffffffffffffffff163373ffffffffffffffffffffffffffffffffffffffff161461236457600080fd5b806001600082825461237691906134b3565b9250508190555050565b82805461238c90613315565b90600052602060002090601f0160209004810192826123ae57600085556123f5565b82601f106123c757805160ff19168380011785556123f5565b828001600101855582156123f5579182015b828111156123f45782518255916020019190600101906123d9565b5b50905061240291906124b7565b5090565b6040518060a0016040528060008152602001606081526020016060815260200160608152602001600081525090565b6040518061012001604052806000815260200160608152602001600081526020016000815260200160608152602001606081526020016060815260200160608152602001600081525090565b6040518060c001604052806000815260200160608152602001606081526020016060815260200160608152602001600081525090565b5b808211156124d05760008160009055506001016124b8565b5090565b6000604051905090565b600080fd5b600080fd5b600080fd5b600080fd5b6000601f19601f8301169050919050565b7f4e487b7100000000000000000000000000000000000000000000000000000000600052604160045260246000fd5b61253b826124f2565b810181811067ffffffffffffffff8211171561255a57612559612503565b5b80604052505050565b600061256d6124d4565b90506125798282612532565b919050565b600067ffffffffffffffff82111561259957612598612503565b5b6125a2826124f2565b9050602081019050919050565b82818337600083830152505050565b60006125d16125cc8461257e565b612563565b9050828152602081018484840111156125ed576125ec6124ed565b5b6125f88482856125af565b509392505050565b600082601f830112612615576126146124e8565b5b81356126258482602086016125be565b91505092915050565b600060208284031215612644576126436124de565b5b600082013567ffffffffffffffff811115612662576126616124e3565b5b61266e84828501612600565b91505092915050565b600081519050919050565b600082825260208201905092915050565b60005b838110156126b1578082015181840152602081019050612696565b838111156126c0576000848401525b50505050565b60006126d182612677565b6126db8185612682565b93506126eb818560208601612693565b6126f4816124f2565b840191505092915050565b6000819050919050565b612712816126ff565b82525050565b600060c082019050818103600083015261273281896126c6565b9050818103602083015261274681886126c6565b9050818103604083015261275a81876126c6565b90506127696060830186612709565b6127766080830185612709565b61278360a0830184612709565b979650505050505050565b612797816126ff565b81146127a257600080fd5b50565b6000813590506127b48161278e565b92915050565b60008060008060008060008060006101208a8c0312156127dd576127dc6124de565b5b60006127eb8c828d016127a5565b99505060208a013567ffffffffffffffff81111561280c5761280b6124e3565b5b6128188c828d01612600565b98505060406128298c828d016127a5565b975050606061283a8c828d016127a5565b96505060808a013567ffffffffffffffff81111561285b5761285a6124e3565b5b6128678c828d01612600565b95505060a08a013567ffffffffffffffff811115612888576128876124e3565b5b6128948c828d01612600565b94505060c08a013567ffffffffffffffff8111156128b5576128b46124e3565b5b6128c18c828d01612600565b93505060e08a013567ffffffffffffffff8111156128e2576128e16124e3565b5b6128ee8c828d01612600565b9250506101006129008c828d016127a5565b9150509295985092959850929598565b600080600080600080600080610100898b031215612931576129306124de565b5b600061293f8b828c016127a5565b98505060206129508b828c016127a5565b97505060406129618b828c016127a5565b965050606089013567ffffffffffffffff811115612982576129816124e3565b5b61298e8b828c01612600565b955050608089013567ffffffffffffffff8111156129af576129ae6124e3565b5b6129bb8b828c01612600565b94505060a089013567ffffffffffffffff8111156129dc576129db6124e3565b5b6129e88b828c01612600565b93505060c089013567ffffffffffffffff811115612a0957612a086124e3565b5b612a158b828c01612600565b92505060e0612a268b828c016127a5565b9150509295985092959890939650565b600060208284031215612a4c57612a4b6124de565b5b6000612a5a848285016127a5565b91505092915050565b600060a082019050612a786000830188612709565b8181036020830152612a8a81876126c6565b90508181036040830152612a9e81866126c6565b90508181036060830152612ab281856126c6565b9050612ac16080830184612709565b9695505050505050565b600073ffffffffffffffffffffffffffffffffffffffff82169050919050565b6000612af682612acb565b9050919050565b612b0681612aeb565b8114612b1157600080fd5b50565b600081359050612b2381612afd565b92915050565b60008060408385031215612b4057612b3f6124de565b5b600083013567ffffffffffffffff811115612b5e57612b5d6124e3565b5b612b6a85828601612600565b9250506020612b7b85828601612b14565b9150509250929050565b600080600060608486031215612b9e57612b9d6124de565b5b600084013567ffffffffffffffff811115612bbc57612bbb6124e3565b5b612bc886828701612600565b935050602084013567ffffffffffffffff811115612be957612be86124e3565b5b612bf586828701612600565b9250506040612c0686828701612b14565b9150509250925092565b612c1981612aeb565b82525050565b60006080820190508181036000830152612c3981876126c6565b90508181036020830152612c4d81866126c6565b9050612c5c6040830185612709565b612c696060830184612c10565b95945050505050565b60008060008060808587031215612c8c57612c8b6124de565b5b600085013567ffffffffffffffff811115612caa57612ca96124e3565b5b612cb687828801612600565b945050602085013567ffffffffffffffff811115612cd757612cd66124e3565b5b612ce387828801612600565b9350506040612cf4878288016127a5565b9250506060612d05878288016127a5565b91505092959194509250565b6000602082019050612d266000830184612709565b92915050565b600061012082019050612d42600083018c612709565b8181036020830152612d54818b6126c6565b9050612d63604083018a612709565b612d706060830189612709565b8181036080830152612d8281886126c6565b905081810360a0830152612d9681876126c6565b905081810360c0830152612daa81866126c6565b905081810360e0830152612dbe81856126c6565b9050612dce610100830184612709565b9a9950505050505050505050565b6000602082019050612df16000830184612c10565b92915050565b600080600080600060a08688031215612e1357612e126124de565b5b6000612e21888289016127a5565b955050602086013567ffffffffffffffff811115612e4257612e416124e3565b5b612e4e88828901612600565b945050604086013567ffffffffffffffff811115612e6f57612e6e6124e3565b5b612e7b88828901612600565b935050606086013567ffffffffffffffff811115612e9c57612e9b6124e3565b5b612ea888828901612600565b9250506080612eb9888289016127a5565b9150509295509295909350565b600060c082019050612edb6000830189612709565b8181036020830152612eed81886126c6565b90508181036040830152612f0181876126c6565b90508181036060830152612f1581866126c6565b90508181036080830152612f2981856126c6565b9050612f3860a0830184612709565b979650505050505050565b612f4c816126ff565b82525050565b600082825260208201905092915050565b6000612f6e82612677565b612f788185612f52565b9350612f88818560208601612693565b612f91816124f2565b840191505092915050565b600060a083016000830151612fb46000860182612f43565b5060208301518482036020860152612fcc8282612f63565b91505060408301518482036040860152612fe68282612f63565b915050606083015184820360608601526130008282612f63565b91505060808301516130156080860182612f43565b508091505092915050565b6000602082019050818103600083015261303a8184612f9c565b905092915050565b60006101208301600083015161305b6000860182612f43565b50602083015184820360208601526130738282612f63565b91505060408301516130886040860182612f43565b50606083015161309b6060860182612f43565b50608083015184820360808601526130b38282612f63565b91505060a083015184820360a08601526130cd8282612f63565b91505060c083015184820360c08601526130e78282612f63565b91505060e083015184820360e08601526131018282612f63565b915050610100830151613118610100860182612f43565b508091505092915050565b6000602082019050818103600083015261313d8184613042565b905092915050565b600060c08301600083015161315d6000860182612f43565b50602083015184820360208601526131758282612f63565b9150506040830151848203604086015261318f8282612f63565b915050606083015184820360608601526131a98282612f63565b915050608083015184820360808601526131c38282612f63565b91505060a08301516131d860a0860182612f43565b508091505092915050565b600060208201905081810360008301526131fd8184613145565b905092915050565b60008060008060008060c08789031215613222576132216124de565b5b600087013567ffffffffffffffff8111156132405761323f6124e3565b5b61324c89828a01612600565b965050602087013567ffffffffffffffff81111561326d5761326c6124e3565b5b61327989828a01612600565b955050604087013567ffffffffffffffff81111561329a576132996124e3565b5b6132a689828a01612600565b94505060606132b789828a016127a5565b93505060806132c889828a016127a5565b92505060a06132d989828a016127a5565b9150509295509295509295565b7f4e487b7100000000000000000000000000000000000000000000000000000000600052602260045260246000fd5b6000600282049050600182168061332d57607f821691505b60208210811415613341576133406132e6565b5b50919050565b600081905092915050565b600061335d82612677565b6133678185613347565b9350613377818560208601612693565b80840191505092915050565b600061338f8284613352565b915081905092915050565b600081905092915050565b60008190508160005260206000209050919050565b600081546133c781613315565b6133d1818661339a565b945060018216600081146133ec57600181146133fd57613430565b60ff19831686528186019350613430565b613406856133a5565b60005b8381101561342857815481890152600182019150602081019050613409565b838801955050505b50505092915050565b600061344582846133ba565b915081905092915050565b7f4e487b7100000000000000000000000000000000000000000000000000000000600052601160045260246000fd5b600061348a826126ff565b9150613495836126ff565b9250828210156134a8576134a7613450565b5b828203905092915050565b60006134be826126ff565b91506134c9836126ff565b9250827fffffffffffffffffffffffffffffffffffffffffffffffffffffffffffffffff038211156134fe576134fd613450565b5b82820190509291505056fea2646970667358221220b6c3869ea2d9ce647c60f4f3b90ee12ccf0388f1eea774ded8a67c3556e6b90064736f6c634300080a0033",
  "immutableReferences": {},
  "source": "// SPDX-License-Identifier: MIT\npragma solidity >=0.4.22 <0.9.0;\n\ncontract Shop {\n    // owner of this contract\n    address public owner;\n\n    // bank balance\n    uint256 public balance;\n\n    // bank account info\n    struct BankAccount {\n        string accountNumber;\n        string ownerPhoneNumber;\n        uint256 balance;\n        address accountAddress;\n    }\n\n    //struct data of a transaction\n    struct Transaction {\n        string code;\n        string fromAccountNumber;\n        string toAccountNumber;\n        uint256 amount;\n        uint256 fee;\n        uint256 timeStamp;\n    }\n\n    struct User {\n        uint256 id;\n        string name;\n        string phone;\n        string email;\n        uint256 timeStamp;\n    }\n\n    struct Product {\n        uint256 id;\n        string title;\n        uint256 price;\n        uint256 size;\n        string description;\n        string image;\n        string color;\n        string prodcutAddress;\n        uint256 timeStamp;\n    }\n\n    struct Order {\n        uint256 totalPrice;\n        string orderAddress;\n        string details;\n        string name;\n        string phone;\n        uint256 timeStamp;\n    }\n\n    // mapping from account number to account\n    mapping(string => BankAccount) public bankAccounts;\n\n    // mapping from code to transaction\n    mapping(string => Transaction) public transactions;\n\n    // mapping from id to order\n    mapping(uint256 => Order) public orders;\n    mapping(uint256 => uint256) public orderToOwner;\n\n    // mapping from id to product\n    mapping(uint256 => Product) public products;\n\n    // mapping from id to user\n    mapping(uint256 => User) public users;\n\n    constructor() {\n        owner = msg.sender;\n    }\n\n    // owner functions\n    function createUser(\n        uint256 _id,\n        string memory _name,\n        string memory _phone,\n        string memory _email,\n        uint256 _timeStamp\n    ) public onlyOwner {\n        //create user\n        users[_id] = User({\n            id: _id,\n            name: _name,\n            phone: _phone,\n            email: _email,\n            timeStamp: _timeStamp\n        });\n    }\n\n    function getUser(uint256 _id) public view onlyOwner returns (User memory) {\n        return users[_id];\n    }\n\n    function createProduct(\n        uint256 _id,\n        string memory _title,\n        uint256 _price,\n        uint256 _size,\n        string memory _description,\n        string memory _image,\n        string memory _color,\n        string memory _prodcutAddress,\n        uint256 _timeStamp\n    ) public onlyOwner {\n        //create user\n        products[_id] = Product({\n            id: _id,\n            title: _title,\n            price: _price,\n            size: _size,\n            description: _description,\n            image: _image,\n            color: _color,\n            prodcutAddress: _prodcutAddress,\n            timeStamp: _timeStamp\n        });\n    }\n\n    function getProduct(uint256 _id)\n        public\n        view\n        onlyOwner\n        returns (Product memory)\n    {\n        return products[_id];\n    }\n\n    function addOrder(\n        uint256 _id,\n        uint256 _userId,\n        uint256 _totalPrice,\n        string memory _orderAddress,\n        string memory _details,\n        string memory _name,\n        string memory _phone,\n        uint256 _timeStamp\n    ) public onlyOwner {\n        //create order\n        orders[_id] = Order({\n            totalPrice: _totalPrice,\n            orderAddress: _orderAddress,\n            details: _details,\n            name: _name,\n            phone: _phone,\n            timeStamp: _timeStamp\n        });\n        orderToOwner[_id] = _userId;\n    }\n\n    function getOrder(uint256 _id)\n        public\n        view\n        onlyOwner\n        returns (Order memory)\n    {\n        return orders[_id];\n    }\n\n    function addBalance(uint256 amount) public onlyOwner {\n        balance += amount;\n    }\n\n    function addAccountBalance(\n        string memory code,\n        string memory accountNumber,\n        uint256 amount,\n        uint256 timeStamp\n    ) public onlyOwner balanceValidate(amount) transactionCodeNotExists(code) {\n        balance -= amount;\n        bankAccounts[accountNumber].balance += amount;\n\n        //create transaction\n        transactions[code] = Transaction({\n            code: code,\n            fromAccountNumber: \"000000000000\",\n            toAccountNumber: accountNumber,\n            amount: amount,\n            fee: 0,\n            timeStamp: timeStamp\n        });\n    }\n\n    function changeAddressOfAccount(\n        string memory accountNumber,\n        address newAddress\n    ) public onlyOwner accountExists(accountNumber) {\n        bankAccounts[accountNumber].accountAddress = newAddress;\n    }\n\n    // user functions\n    function createAccount(\n        string memory accountNumber,\n        string memory ownerPhoneNumber,\n        address accountAddress\n    ) public accountNotExists(accountNumber) {\n        bankAccounts[accountNumber] = BankAccount({\n            accountNumber: accountNumber,\n            ownerPhoneNumber: ownerPhoneNumber,\n            balance: 0,\n            accountAddress: accountAddress\n        });\n    }\n\n    function transfer(\n        string memory code,\n        string memory fromAccount,\n        string memory toAccount,\n        uint256 fee,\n        uint256 amount,\n        uint256 timeStamp\n    )\n        public\n        accountValidateTransfer(fromAccount, amount, fee)\n        accountExists(toAccount)\n        transactionCodeNotExists(code)\n    {\n        bankAccounts[fromAccount].balance -= amount;\n        bankAccounts[toAccount].balance += amount;\n\n        bankAccounts[fromAccount].balance -= fee;\n        balance += fee;\n\n        //create transaction\n        transactions[code] = Transaction({\n            code: code,\n            fromAccountNumber: fromAccount,\n            toAccountNumber: toAccount,\n            amount: amount,\n            fee: fee,\n            timeStamp: timeStamp\n        });\n    }\n\n    // modifiers\n\n    // modifier that use to require caller is owner\n    modifier onlyOwner() {\n        require(msg.sender == owner);\n        _;\n    }\n\n    // modifier that use to make sure account not exists\n    modifier accountNotExists(string memory accountNumber) {\n        string memory empty = \"\";\n        require(\n            keccak256(bytes(bankAccounts[accountNumber].accountNumber)) ==\n                keccak256(bytes(empty))\n        );\n        _;\n    }\n\n    // modifier that use to make sure account exists\n    modifier accountExists(string memory accountNumber) {\n        string memory moneyBaseAccount = \"000000000000\";\n\n        require(\n            keccak256(bytes(bankAccounts[accountNumber].accountNumber)) ==\n                keccak256(bytes(accountNumber))\n        );\n        _;\n    }\n\n    // modifier that use to make sure account have right secure hash\n    // and valid amount for transfer\n    modifier accountValidateTransfer(\n        string memory accountNumber,\n        uint256 amount,\n        uint256 fee\n    ) {\n        require(\n            bankAccounts[accountNumber].accountAddress == msg.sender &&\n                bankAccounts[accountNumber].balance >= amount + fee\n        );\n        _;\n    }\n\n    // modifier that make sure bank balance have enough money\n    // to add account balance\n    modifier balanceValidate(uint256 amount) {\n        require(balance >= amount);\n        _;\n    }\n\n    // modifier that make sure transaction\n    // with code have not exist\n    modifier transactionCodeNotExists(string memory code) {\n        string memory empty = \"\";\n        require(\n            keccak256(bytes(transactions[code].code)) == keccak256(bytes(empty))\n        );\n        _;\n    }\n}\n",
  "sourcePath": "/home/gondar/Documents/mobie-app/backend/truffle_smart_contract/contracts/shop_online.sol",
  "compiler": {
    "name": "solc",
    "version": "0.8.10+commit.fc410830.Emscripten.clang"
  },
  "schemaVersion": "3.4.3",
  "updatedAt": "2021-12-30T17:03:48.215Z",
  "networkType": "ethereum",
  "devdoc": {
    "kind": "dev",
    "methods": {},
    "version": 1
  },
  "userdoc": {
    "kind": "user",
    "methods": {},
    "version": 1
  }
}