{
  "contractName": "Shop",
  "abi": [
    {
      "inputs": [],
      "stateMutability": "nonpayable",
      "type": "constructor"
    },
    {
      "inputs": [],
      "name": "balance",
      "outputs": [
        {
          "internalType": "uint256",
          "name": "",
          "type": "uint256"
        }
      ],
      "stateMutability": "view",
      "type": "function",
      "constant": true
    },
    {
      "inputs": [
        {
          "internalType": "string",
          "name": "",
          "type": "string"
        }
      ],
      "name": "bankAccounts",
      "outputs": [
        {
          "internalType": "string",
          "name": "accountNumber",
          "type": "string"
        },
        {
          "internalType": "string",
          "name": "ownerPhoneNumber",
          "type": "string"
        },
        {
          "internalType": "uint256",
          "name": "balance",
          "type": "uint256"
        },
        {
          "internalType": "address",
          "name": "accountAddress",
          "type": "address"
        }
      ],
      "stateMutability": "view",
      "type": "function",
      "constant": true
    },
    {
      "inputs": [
        {
          "internalType": "uint256",
          "name": "",
          "type": "uint256"
        }
      ],
      "name": "orders",
      "outputs": [
        {
          "internalType": "uint256",
          "name": "id",
          "type": "uint256"
        },
        {
          "internalType": "uint256",
          "name": "userId",
          "type": "uint256"
        },
        {
          "internalType": "uint256",
          "name": "totalPrice",
          "type": "uint256"
        },
        {
          "internalType": "string",
          "name": "orderAddress",
          "type": "string"
        },
        {
          "internalType": "string",
          "name": "details",
          "type": "string"
        },
        {
          "internalType": "uint256",
          "name": "timeStamp",
          "type": "uint256"
        }
      ],
      "stateMutability": "view",
      "type": "function",
      "constant": true
    },
    {
      "inputs": [],
      "name": "owner",
      "outputs": [
        {
          "internalType": "address",
          "name": "",
          "type": "address"
        }
      ],
      "stateMutability": "view",
      "type": "function",
      "constant": true
    },
    {
      "inputs": [
        {
          "internalType": "uint256",
          "name": "",
          "type": "uint256"
        }
      ],
      "name": "products",
      "outputs": [
        {
          "internalType": "uint256",
          "name": "id",
          "type": "uint256"
        },
        {
          "internalType": "string",
          "name": "title",
          "type": "string"
        },
        {
          "internalType": "uint256",
          "name": "price",
          "type": "uint256"
        },
        {
          "internalType": "uint256",
          "name": "size",
          "type": "uint256"
        },
        {
          "internalType": "string",
          "name": "description",
          "type": "string"
        },
        {
          "internalType": "string",
          "name": "image",
          "type": "string"
        },
        {
          "internalType": "string",
          "name": "color",
          "type": "string"
        },
        {
          "internalType": "string",
          "name": "prodcutAddress",
          "type": "string"
        }
      ],
      "stateMutability": "view",
      "type": "function",
      "constant": true
    },
    {
      "inputs": [
        {
          "internalType": "string",
          "name": "",
          "type": "string"
        }
      ],
      "name": "transactions",
      "outputs": [
        {
          "internalType": "string",
          "name": "code",
          "type": "string"
        },
        {
          "internalType": "string",
          "name": "fromAccountNumber",
          "type": "string"
        },
        {
          "internalType": "string",
          "name": "toAccountNumber",
          "type": "string"
        },
        {
          "internalType": "uint256",
          "name": "amount",
          "type": "uint256"
        },
        {
          "internalType": "uint256",
          "name": "fee",
          "type": "uint256"
        },
        {
          "internalType": "uint256",
          "name": "timeStamp",
          "type": "uint256"
        }
      ],
      "stateMutability": "view",
      "type": "function",
      "constant": true
    },
    {
      "inputs": [
        {
          "internalType": "uint256",
          "name": "",
          "type": "uint256"
        }
      ],
      "name": "users",
      "outputs": [
        {
          "internalType": "uint256",
          "name": "id",
          "type": "uint256"
        },
        {
          "internalType": "string",
          "name": "name",
          "type": "string"
        },
        {
          "internalType": "string",
          "name": "phone",
          "type": "string"
        },
        {
          "internalType": "string",
          "name": "email",
          "type": "string"
        },
        {
          "internalType": "uint256",
          "name": "balance",
          "type": "uint256"
        }
      ],
      "stateMutability": "view",
      "type": "function",
      "constant": true
    },
    {
      "inputs": [
        {
          "internalType": "uint256",
          "name": "_id",
          "type": "uint256"
        },
        {
          "internalType": "uint256",
          "name": "_userId",
          "type": "uint256"
        },
        {
          "internalType": "uint256",
          "name": "_totalPrice",
          "type": "uint256"
        },
        {
          "internalType": "string",
          "name": "_orderAddress",
          "type": "string"
        },
        {
          "internalType": "string",
          "name": "_details",
          "type": "string"
        },
        {
          "internalType": "uint256",
          "name": "_timeStamp",
          "type": "uint256"
        }
      ],
      "name": "addOrder",
      "outputs": [],
      "stateMutability": "nonpayable",
      "type": "function"
    },
    {
      "inputs": [
        {
          "internalType": "uint256",
          "name": "amount",
          "type": "uint256"
        }
      ],
      "name": "addBalance",
      "outputs": [],
      "stateMutability": "nonpayable",
      "type": "function"
    },
    {
      "inputs": [
        {
          "internalType": "string",
          "name": "code",
          "type": "string"
        },
        {
          "internalType": "string",
          "name": "accountNumber",
          "type": "string"
        },
        {
          "internalType": "uint256",
          "name": "amount",
          "type": "uint256"
        },
        {
          "internalType": "uint256",
          "name": "timeStamp",
          "type": "uint256"
        }
      ],
      "name": "addAccountBalance",
      "outputs": [],
      "stateMutability": "nonpayable",
      "type": "function"
    },
    {
      "inputs": [
        {
          "internalType": "string",
          "name": "accountNumber",
          "type": "string"
        },
        {
          "internalType": "address",
          "name": "newAddress",
          "type": "address"
        }
      ],
      "name": "changeAddressOfAccount",
      "outputs": [],
      "stateMutability": "nonpayable",
      "type": "function"
    },
    {
      "inputs": [
        {
          "internalType": "string",
          "name": "accountNumber",
          "type": "string"
        },
        {
          "internalType": "string",
          "name": "ownerPhoneNumber",
          "type": "string"
        },
        {
          "internalType": "address",
          "name": "accountAddress",
          "type": "address"
        }
      ],
      "name": "createAccount",
      "outputs": [],
      "stateMutability": "nonpayable",
      "type": "function"
    },
    {
      "inputs": [
        {
          "internalType": "string",
          "name": "code",
          "type": "string"
        },
        {
          "internalType": "string",
          "name": "fromAccount",
          "type": "string"
        },
        {
          "internalType": "string",
          "name": "toAccount",
          "type": "string"
        },
        {
          "internalType": "uint256",
          "name": "fee",
          "type": "uint256"
        },
        {
          "internalType": "uint256",
          "name": "amount",
          "type": "uint256"
        },
        {
          "internalType": "uint256",
          "name": "timeStamp",
          "type": "uint256"
        }
      ],
      "name": "transfer",
      "outputs": [],
      "stateMutability": "nonpayable",
      "type": "function"
    }
  ],
  "bytecode": "0x608060405234801561001057600080fd5b50336000806101000a81548173ffffffffffffffffffffffffffffffffffffffff021916908373ffffffffffffffffffffffffffffffffffffffff16021790555061213e806100606000396000f3fe608060405234801561001057600080fd5b50600436106100cf5760003560e01c80637acc0b201161008c578063b69ef8a811610066578063b69ef8a81461024e578063d5e1594f1461026c578063d91921ed14610288578063f16bb139146102a4576100cf565b80637acc0b20146101c45780638da5cb5b146101fb578063a85c38ef14610219576100cf565b8063022236f4146100d4578063365b98b21461010957806341bc36281461013d57806341d3d0ab1461015957806347bccce0146101755780634d36058e146101a8575b600080fd5b6100ee60048036038101906100e99190611792565b6102c0565b6040516101009695949392919061187c565b60405180910390f35b610123600480360381019061011e919061191e565b6104aa565b60405161013495949392919061194b565b60405180910390f35b61015760048036038101906101529190611a11565b610678565b005b610173600480360381019061016e9190611a6d565b6107b9565b005b61018f600480360381019061018a9190611792565b610901565b60405161019f9493929190611b07565b60405180910390f35b6101c260048036038101906101bd9190611b5a565b610a77565b005b6101de60048036038101906101d9919061191e565b610c8f565b6040516101f2989796959493929190611bf9565b60405180910390f35b610203610f7f565b6040516102109190611c9a565b60405180910390f35b610233600480360381019061022e919061191e565b610fa3565b60405161024596959493929190611cb5565b60405180910390f35b6102566110ef565b6040516102639190611d24565b60405180910390f35b61028660048036038101906102819190611d3f565b6110f5565b005b6102a2600480360381019061029d919061191e565b61141c565b005b6102be60048036038101906102b99190611e20565b611490565b005b6003818051602081018201805184825260208301602085012081835280955050505050506000915090508060000180546102f990611f14565b80601f016020809104026020016040519081016040528092919081815260200182805461032590611f14565b80156103725780601f1061034757610100808354040283529160200191610372565b820191906000526020600020905b81548152906001019060200180831161035557829003601f168201915b50505050509080600101805461038790611f14565b80601f01602080910402602001604051908101604052809291908181526020018280546103b390611f14565b80156104005780601f106103d557610100808354040283529160200191610400565b820191906000526020600020905b8154815290600101906020018083116103e357829003601f168201915b50505050509080600201805461041590611f14565b80601f016020809104026020016040519081016040528092919081815260200182805461044190611f14565b801561048e5780601f106104635761010080835404028352916020019161048e565b820191906000526020600020905b81548152906001019060200180831161047157829003601f168201915b5050505050908060030154908060040154908060050154905086565b60066020528060005260406000206000915090508060000154908060010180546104d390611f14565b80601f01602080910402602001604051908101604052809291908181526020018280546104ff90611f14565b801561054c5780601f106105215761010080835404028352916020019161054c565b820191906000526020600020905b81548152906001019060200180831161052f57829003601f168201915b50505050509080600201805461056190611f14565b80601f016020809104026020016040519081016040528092919081815260200182805461058d90611f14565b80156105da5780601f106105af576101008083540402835291602001916105da565b820191906000526020600020905b8154815290600101906020018083116105bd57829003601f168201915b5050505050908060030180546105ef90611f14565b80601f016020809104026020016040519081016040528092919081815260200182805461061b90611f14565b80156106685780601f1061063d57610100808354040283529160200191610668565b820191906000526020600020905b81548152906001019060200180831161064b57829003601f168201915b5050505050908060040154905085565b60008054906101000a900473ffffffffffffffffffffffffffffffffffffffff1673ffffffffffffffffffffffffffffffffffffffff163373ffffffffffffffffffffffffffffffffffffffff16146106d057600080fd5b8160006040518060400160405280600c81526020017f3030303030303030303030300000000000000000000000000000000000000000815250905081805190602001206002836040516107239190611f82565b90815260200160405180910390206000016040516107419190612038565b60405180910390201461075357600080fd5b826002856040516107649190611f82565b908152602001604051809103902060030160006101000a81548173ffffffffffffffffffffffffffffffffffffffff021916908373ffffffffffffffffffffffffffffffffffffffff16021790555050505050565b82600060405180602001604052806000815250905080805190602001206002836040516107e69190611f82565b90815260200160405180910390206000016040516108049190612038565b60405180910390201461081657600080fd5b6040518060800160405280868152602001858152602001600081526020018473ffffffffffffffffffffffffffffffffffffffff1681525060028660405161085e9190611f82565b90815260200160405180910390206000820151816000019080519060200190610888929190611595565b5060208201518160010190805190602001906108a5929190611595565b506040820151816002015560608201518160030160006101000a81548173ffffffffffffffffffffffffffffffffffffffff021916908373ffffffffffffffffffffffffffffffffffffffff1602179055509050505050505050565b60028180516020810182018051848252602083016020850120818352809550505050505060009150905080600001805461093a90611f14565b80601f016020809104026020016040519081016040528092919081815260200182805461096690611f14565b80156109b35780601f10610988576101008083540402835291602001916109b3565b820191906000526020600020905b81548152906001019060200180831161099657829003601f168201915b5050505050908060010180546109c890611f14565b80601f01602080910402602001604051908101604052809291908181526020018280546109f490611f14565b8015610a415780601f10610a1657610100808354040283529160200191610a41565b820191906000526020600020905b815481529060010190602001808311610a2457829003601f168201915b5050505050908060020154908060030160009054906101000a900473ffffffffffffffffffffffffffffffffffffffff16905084565b60008054906101000a900473ffffffffffffffffffffffffffffffffffffffff1673ffffffffffffffffffffffffffffffffffffffff163373ffffffffffffffffffffffffffffffffffffffff1614610acf57600080fd5b81806001541015610adf57600080fd5b8460006040518060200160405280600081525090508080519060200120600383604051610b0c9190611f82565b9081526020016040518091039020600001604051610b2a9190612038565b604051809103902014610b3c57600080fd5b8460016000828254610b4e919061207e565b9250508190555084600287604051610b669190611f82565b90815260200160405180910390206002016000828254610b8691906120b2565b925050819055506040518060c001604052808881526020016040518060400160405280600c81526020017f303030303030303030303030000000000000000000000000000000000000000081525081526020018781526020018681526020016000815260200185815250600388604051610c009190611f82565b90815260200160405180910390206000820151816000019080519060200190610c2a929190611595565b506020820151816001019080519060200190610c47929190611595565b506040820151816002019080519060200190610c64929190611595565b50606082015181600301556080820151816004015560a0820151816005015590505050505050505050565b6005602052806000526040600020600091509050806000015490806001018054610cb890611f14565b80601f0160208091040260200160405190810160405280929190818152602001828054610ce490611f14565b8015610d315780601f10610d0657610100808354040283529160200191610d31565b820191906000526020600020905b815481529060010190602001808311610d1457829003601f168201915b505050505090806002015490806003015490806004018054610d5290611f14565b80601f0160208091040260200160405190810160405280929190818152602001828054610d7e90611f14565b8015610dcb5780601f10610da057610100808354040283529160200191610dcb565b820191906000526020600020905b815481529060010190602001808311610dae57829003601f168201915b505050505090806005018054610de090611f14565b80601f0160208091040260200160405190810160405280929190818152602001828054610e0c90611f14565b8015610e595780601f10610e2e57610100808354040283529160200191610e59565b820191906000526020600020905b815481529060010190602001808311610e3c57829003601f168201915b505050505090806006018054610e6e90611f14565b80601f0160208091040260200160405190810160405280929190818152602001828054610e9a90611f14565b8015610ee75780601f10610ebc57610100808354040283529160200191610ee7565b820191906000526020600020905b815481529060010190602001808311610eca57829003601f168201915b505050505090806007018054610efc90611f14565b80601f0160208091040260200160405190810160405280929190818152602001828054610f2890611f14565b8015610f755780601f10610f4a57610100808354040283529160200191610f75565b820191906000526020600020905b815481529060010190602001808311610f5857829003601f168201915b5050505050905088565b60008054906101000a900473ffffffffffffffffffffffffffffffffffffffff1681565b6004602052806000526040600020600091509050806000015490806001015490806002015490806003018054610fd890611f14565b80601f016020809104026020016040519081016040528092919081815260200182805461100490611f14565b80156110515780601f1061102657610100808354040283529160200191611051565b820191906000526020600020905b81548152906001019060200180831161103457829003601f168201915b50505050509080600401805461106690611f14565b80601f016020809104026020016040519081016040528092919081815260200182805461109290611f14565b80156110df5780601f106110b4576101008083540402835291602001916110df565b820191906000526020600020905b8154815290600101906020018083116110c257829003601f168201915b5050505050908060050154905086565b60015481565b8482843373ffffffffffffffffffffffffffffffffffffffff1660028460405161111f9190611f82565b908152602001604051809103902060030160009054906101000a900473ffffffffffffffffffffffffffffffffffffffff1673ffffffffffffffffffffffffffffffffffffffff161480156111a05750808261117b91906120b2565b60028460405161118b9190611f82565b90815260200160405180910390206002015410155b6111a957600080fd5b8660006040518060400160405280600c81526020017f3030303030303030303030300000000000000000000000000000000000000000815250905081805190602001206002836040516111fc9190611f82565b908152602001604051809103902060000160405161121a9190612038565b60405180910390201461122c57600080fd5b8a600060405180602001604052806000815250905080805190602001206003836040516112599190611f82565b90815260200160405180910390206000016040516112779190612038565b60405180910390201461128957600080fd5b8860028d60405161129a9190611f82565b908152602001604051809103902060020160008282546112ba919061207e565b925050819055508860028c6040516112d29190611f82565b908152602001604051809103902060020160008282546112f291906120b2565b925050819055508960028d60405161130a9190611f82565b9081526020016040518091039020600201600082825461132a919061207e565b92505081905550896001600082825461134391906120b2565b925050819055506040518060c001604052808e81526020018d81526020018c81526020018a81526020018b81526020018981525060038e6040516113879190611f82565b908152602001604051809103902060008201518160000190805190602001906113b1929190611595565b5060208201518160010190805190602001906113ce929190611595565b5060408201518160020190805190602001906113eb929190611595565b50606082015181600301556080820151816004015560a0820151816005015590505050505050505050505050505050565b60008054906101000a900473ffffffffffffffffffffffffffffffffffffffff1673ffffffffffffffffffffffffffffffffffffffff163373ffffffffffffffffffffffffffffffffffffffff161461147457600080fd5b806001600082825461148691906120b2565b9250508190555050565b60008054906101000a900473ffffffffffffffffffffffffffffffffffffffff1673ffffffffffffffffffffffffffffffffffffffff163373ffffffffffffffffffffffffffffffffffffffff16146114e857600080fd5b6040518060c0016040528087815260200186815260200185815260200184815260200183815260200182815250600460008881526020019081526020016000206000820151816000015560208201518160010155604082015181600201556060820151816003019080519060200190611562929190611595565b50608082015181600401908051906020019061157f929190611595565b5060a08201518160050155905050505050505050565b8280546115a190611f14565b90600052602060002090601f0160209004810192826115c3576000855561160a565b82601f106115dc57805160ff191683800117855561160a565b8280016001018555821561160a579182015b828111156116095782518255916020019190600101906115ee565b5b509050611617919061161b565b5090565b5b8082111561163457600081600090555060010161161c565b5090565b6000604051905090565b600080fd5b600080fd5b600080fd5b600080fd5b6000601f19601f8301169050919050565b7f4e487b7100000000000000000000000000000000000000000000000000000000600052604160045260246000fd5b61169f82611656565b810181811067ffffffffffffffff821117156116be576116bd611667565b5b80604052505050565b60006116d1611638565b90506116dd8282611696565b919050565b600067ffffffffffffffff8211156116fd576116fc611667565b5b61170682611656565b9050602081019050919050565b82818337600083830152505050565b6000611735611730846116e2565b6116c7565b90508281526020810184848401111561175157611750611651565b5b61175c848285611713565b509392505050565b600082601f8301126117795761177861164c565b5b8135611789848260208601611722565b91505092915050565b6000602082840312156117a8576117a7611642565b5b600082013567ffffffffffffffff8111156117c6576117c5611647565b5b6117d284828501611764565b91505092915050565b600081519050919050565b600082825260208201905092915050565b60005b838110156118155780820151818401526020810190506117fa565b83811115611824576000848401525b50505050565b6000611835826117db565b61183f81856117e6565b935061184f8185602086016117f7565b61185881611656565b840191505092915050565b6000819050919050565b61187681611863565b82525050565b600060c0820190508181036000830152611896818961182a565b905081810360208301526118aa818861182a565b905081810360408301526118be818761182a565b90506118cd606083018661186d565b6118da608083018561186d565b6118e760a083018461186d565b979650505050505050565b6118fb81611863565b811461190657600080fd5b50565b600081359050611918816118f2565b92915050565b60006020828403121561193457611933611642565b5b600061194284828501611909565b91505092915050565b600060a082019050611960600083018861186d565b8181036020830152611972818761182a565b90508181036040830152611986818661182a565b9050818103606083015261199a818561182a565b90506119a9608083018461186d565b9695505050505050565b600073ffffffffffffffffffffffffffffffffffffffff82169050919050565b60006119de826119b3565b9050919050565b6119ee816119d3565b81146119f957600080fd5b50565b600081359050611a0b816119e5565b92915050565b60008060408385031215611a2857611a27611642565b5b600083013567ffffffffffffffff811115611a4657611a45611647565b5b611a5285828601611764565b9250506020611a63858286016119fc565b9150509250929050565b600080600060608486031215611a8657611a85611642565b5b600084013567ffffffffffffffff811115611aa457611aa3611647565b5b611ab086828701611764565b935050602084013567ffffffffffffffff811115611ad157611ad0611647565b5b611add86828701611764565b9250506040611aee868287016119fc565b9150509250925092565b611b01816119d3565b82525050565b60006080820190508181036000830152611b21818761182a565b90508181036020830152611b35818661182a565b9050611b44604083018561186d565b611b516060830184611af8565b95945050505050565b60008060008060808587031215611b7457611b73611642565b5b600085013567ffffffffffffffff811115611b9257611b91611647565b5b611b9e87828801611764565b945050602085013567ffffffffffffffff811115611bbf57611bbe611647565b5b611bcb87828801611764565b9350506040611bdc87828801611909565b9250506060611bed87828801611909565b91505092959194509250565b600061010082019050611c0f600083018b61186d565b8181036020830152611c21818a61182a565b9050611c30604083018961186d565b611c3d606083018861186d565b8181036080830152611c4f818761182a565b905081810360a0830152611c63818661182a565b905081810360c0830152611c77818561182a565b905081810360e0830152611c8b818461182a565b90509998505050505050505050565b6000602082019050611caf6000830184611af8565b92915050565b600060c082019050611cca600083018961186d565b611cd7602083018861186d565b611ce4604083018761186d565b8181036060830152611cf6818661182a565b90508181036080830152611d0a818561182a565b9050611d1960a083018461186d565b979650505050505050565b6000602082019050611d39600083018461186d565b92915050565b60008060008060008060c08789031215611d5c57611d5b611642565b5b600087013567ffffffffffffffff811115611d7a57611d79611647565b5b611d8689828a01611764565b965050602087013567ffffffffffffffff811115611da757611da6611647565b5b611db389828a01611764565b955050604087013567ffffffffffffffff811115611dd457611dd3611647565b5b611de089828a01611764565b9450506060611df189828a01611909565b9350506080611e0289828a01611909565b92505060a0611e1389828a01611909565b9150509295509295509295565b60008060008060008060c08789031215611e3d57611e3c611642565b5b6000611e4b89828a01611909565b9650506020611e5c89828a01611909565b9550506040611e6d89828a01611909565b945050606087013567ffffffffffffffff811115611e8e57611e8d611647565b5b611e9a89828a01611764565b935050608087013567ffffffffffffffff811115611ebb57611eba611647565b5b611ec789828a01611764565b92505060a0611ed889828a01611909565b9150509295509295509295565b7f4e487b7100000000000000000000000000000000000000000000000000000000600052602260045260246000fd5b60006002820490506001821680611f2c57607f821691505b60208210811415611f4057611f3f611ee5565b5b50919050565b600081905092915050565b6000611f5c826117db565b611f668185611f46565b9350611f768185602086016117f7565b80840191505092915050565b6000611f8e8284611f51565b915081905092915050565b600081905092915050565b60008190508160005260206000209050919050565b60008154611fc681611f14565b611fd08186611f99565b94506001821660008114611feb5760018114611ffc5761202f565b60ff1983168652818601935061202f565b61200585611fa4565b60005b8381101561202757815481890152600182019150602081019050612008565b838801955050505b50505092915050565b60006120448284611fb9565b915081905092915050565b7f4e487b7100000000000000000000000000000000000000000000000000000000600052601160045260246000fd5b600061208982611863565b915061209483611863565b9250828210156120a7576120a661204f565b5b828203905092915050565b60006120bd82611863565b91506120c883611863565b9250827fffffffffffffffffffffffffffffffffffffffffffffffffffffffffffffffff038211156120fd576120fc61204f565b5b82820190509291505056fea26469706673582212207520bb18157f43f54fb11fb701224a2b4a42f2fe71945352254f536e0f226dcb64736f6c634300080a0033",
  "immutableReferences": {},
  "source": "// SPDX-License-Identifier: MIT\npragma solidity >=0.4.22 <0.9.0;\n\ncontract Shop {\n    // owner of this contract\n    address public owner;\n\n    // bank balance\n    uint256 public balance;\n\n    // bank account info\n    struct BankAccount {\n        string accountNumber;\n        string ownerPhoneNumber;\n        uint256 balance;\n        address accountAddress;\n    }\n\n    //struct data of a transaction\n    struct Transaction {\n        string code;\n        string fromAccountNumber;\n        string toAccountNumber;\n        uint256 amount;\n        uint256 fee;\n        uint256 timeStamp;\n    }\n\n    struct User {\n        uint256 id;\n        string name;\n        string phone;\n        string email;\n        uint256 balance;\n    }\n\n    struct Product {\n        uint256 id;\n        string title;\n        uint256 price;\n        uint256 size;\n        string description;\n        string image;\n        string color;\n        string prodcutAddress;\n    }\n\n    struct Order {\n        uint256 id;\n        uint256 userId;\n        uint256 totalPrice;\n        string orderAddress;\n        string details;\n        uint256 timeStamp;\n    }\n\n    // mapping from account number to account\n    mapping(string => BankAccount) public bankAccounts;\n\n    // mapping from code to transaction\n    mapping(string => Transaction) public transactions;\n\n    // mapping from id to order\n    mapping(uint256 => Order) public orders;\n\n    // mapping from id to product\n    mapping(uint256 => Product) public products;\n\n    // mapping from id to user\n    mapping(uint256 => User) public users;\n\n    constructor() {\n        owner = msg.sender;\n    }\n\n    // owner functions\n    function addOrder(\n        uint256 _id,\n        uint256 _userId,\n        uint256 _totalPrice,\n        string memory _orderAddress,\n        string memory _details,\n        uint256 _timeStamp\n    ) public onlyOwner {\n        //create order\n        orders[_id] = Order({\n            id: _id,\n            userId: _userId,\n            totalPrice: _totalPrice,\n            orderAddress: _orderAddress,\n            details: _details,\n            timeStamp: _timeStamp\n        });\n    }\n\n    function addBalance(uint256 amount) public onlyOwner {\n        balance += amount;\n    }\n\n    function addAccountBalance(\n        string memory code,\n        string memory accountNumber,\n        uint256 amount,\n        uint256 timeStamp\n    ) public onlyOwner balanceValidate(amount) transactionCodeNotExists(code) {\n        balance -= amount;\n        bankAccounts[accountNumber].balance += amount;\n\n        //create transaction\n        transactions[code] = Transaction({\n            code: code,\n            fromAccountNumber: \"000000000000\",\n            toAccountNumber: accountNumber,\n            amount: amount,\n            fee: 0,\n            timeStamp: timeStamp\n        });\n    }\n\n    function changeAddressOfAccount(\n        string memory accountNumber,\n        address newAddress\n    ) public onlyOwner accountExists(accountNumber) {\n        bankAccounts[accountNumber].accountAddress = newAddress;\n    }\n\n    // user functions\n    function createAccount(\n        string memory accountNumber,\n        string memory ownerPhoneNumber,\n        address accountAddress\n    ) public accountNotExists(accountNumber) {\n        bankAccounts[accountNumber] = BankAccount({\n            accountNumber: accountNumber,\n            ownerPhoneNumber: ownerPhoneNumber,\n            balance: 0,\n            accountAddress: accountAddress\n        });\n    }\n\n    function transfer(\n        string memory code,\n        string memory fromAccount,\n        string memory toAccount,\n        uint256 fee,\n        uint256 amount,\n        uint256 timeStamp\n    )\n        public\n        accountValidateTransfer(fromAccount, amount, fee)\n        accountExists(toAccount)\n        transactionCodeNotExists(code)\n    {\n        bankAccounts[fromAccount].balance -= amount;\n        bankAccounts[toAccount].balance += amount;\n\n        bankAccounts[fromAccount].balance -= fee;\n        balance += fee;\n\n        //create transaction\n        transactions[code] = Transaction({\n            code: code,\n            fromAccountNumber: fromAccount,\n            toAccountNumber: toAccount,\n            amount: amount,\n            fee: fee,\n            timeStamp: timeStamp\n        });\n    }\n\n    // modifiers\n\n    // modifier that use to require caller is owner\n    modifier onlyOwner() {\n        require(msg.sender == owner);\n        _;\n    }\n\n    // modifier that use to make sure account not exists\n    modifier accountNotExists(string memory accountNumber) {\n        string memory empty = \"\";\n        require(\n            keccak256(bytes(bankAccounts[accountNumber].accountNumber)) ==\n                keccak256(bytes(empty))\n        );\n        _;\n    }\n\n    // modifier that use to make sure account exists\n    modifier accountExists(string memory accountNumber) {\n        string memory moneyBaseAccount = \"000000000000\";\n\n        require(\n            keccak256(bytes(bankAccounts[accountNumber].accountNumber)) ==\n                keccak256(bytes(accountNumber))\n        );\n        _;\n    }\n\n    // modifier that use to make sure account have right secure hash\n    // and valid amount for transfer\n    modifier accountValidateTransfer(\n        string memory accountNumber,\n        uint256 amount,\n        uint256 fee\n    ) {\n        require(\n            bankAccounts[accountNumber].accountAddress == msg.sender &&\n                bankAccounts[accountNumber].balance >= amount + fee\n        );\n        _;\n    }\n\n    // modifier that make sure bank balance have enough money\n    // to add account balance\n    modifier balanceValidate(uint256 amount) {\n        require(balance >= amount);\n        _;\n    }\n\n    // modifier that make sure transaction\n    // with code have not exist\n    modifier transactionCodeNotExists(string memory code) {\n        string memory empty = \"\";\n        require(\n            keccak256(bytes(transactions[code].code)) == keccak256(bytes(empty))\n        );\n        _;\n    }\n}\n",
  "sourcePath": "/home/gondar/Documents/mobie-app/backend/truffle_smart_contract/contracts/shop_online.sol",
  "compiler": {
    "name": "solc",
    "version": "0.8.10+commit.fc410830.Emscripten.clang"
  },
  "schemaVersion": "3.4.3",
  "updatedAt": "2021-12-30T14:10:59.054Z",
  "networkType": "ethereum",
  "devdoc": {
    "kind": "dev",
    "methods": {},
    "version": 1
  },
  "userdoc": {
    "kind": "user",
    "methods": {},
    "version": 1
  }
}